:020000040800F2
:10000000300D0020ED010008CB260008B1220008C9
:10001000C9260008C10D0008352C000800000000AA
:10002000000000000000000000000000BF280008E1
:100030003D0F000800000000BD280008ED28000862
:10004000070200080702000807020008070200086C
:10005000070200080702000807020008070200085C
:10006000070200080702000807020008070200084C
:10007000070200080702000807020008070200083C
:10008000070200080702000807020008070200082C
:10009000070200080702000807020008070200081C
:1000A000070200080702000807020008070200080C
:1000B00007020008070200080702000807020008FC
:1000C00007020008070200080702000807020008EC
:1000D00007020008B12B0008BD2B0008C92B00083F
:1000E00007020008070200080702000807020008CC
:1000F00007020008070200080702000807020008BC
:1001000007020008070200080702000807020008AB
:10011000070200080702000807020008070200089B
:10012000070200080702000807020008070200088B
:1001300000F002F800F04AF80AA090E8000C8244AF
:100140008344AAF10107DA4501D100F03FF8AFF28C
:10015000090EBAE80F0013F0010F18BFFB1A43F0A5
:10016000010318473037000050370000103A24BF11
:1001700078C878C1FAD8520724BF30C830C144BF0C
:1001800004680C607047000000230024002500264E
:10019000103A28BF78C1FBD8520728BF30C148BFEA
:1001A0000B607047642900F0AB80632900F09381F5
:1001B000002070471FB59DE8030000F0D3FB00F05E
:1001C000C5F91FBD10B500F02AFA10BD00F08DFA78
:1001D0001146FFF7EFFF02F017FE00F091FB03B4AA
:1001E000FFF7F0FF03BC00F04FFD00000948804717
:1001F00009480047FEE7FEE7FEE7FEE7FEE7FEE709
:10020000FEE7FEE7FEE7FEE704480549054A064B20
:100210007047000063290008310100083007002002
:10022000300D002030090020300900200FB40449AF
:1002300010B503AA029800F05BF910BC5DF814FB3E
:10024000280600202DE9F0410E46044600202062D9
:100250002046E168884730B3252805D0D4E901213C
:100260009047206A401CF2E7E16820460027884753
:10027000050018D0A5F14100192802D820354FF407
:1002800000673246294620462760FFF78BFF40B1C2
:10029000012804D0F61D26F007060836D8E7361DDB
:1002A000D6E72846DAE7206ABDE8F08170B50C464B
:1002B0000546012A05D02878800600D5EA69002382
:1002C00002E0012305E05B1C934202D2E05C0028BF
:1002D000F9D1A869E618C01AA861286A18442862EA
:1002E0002846AFF3008004E0D5E9012114F8010BA2
:1002F0009047B442F8D32846AFF3008070BD0000A9
:100300002DE9F0410646002410687529314616A5EE
:1003100010D0AFF30080002802DA404213A507E0B6
:1003200031688A0701D512A502E0490704D511A555
:10033000012401E0AFF3008000210A2206F1240726
:1003400009E0B0FBF2FCB0FBF2F302FB1C00303022
:1003500078541846491C0028F3D123462A463046D3
:10036000BDE8F04100F054B8000000002D0000008E
:100370002B000000200000004FF000020429C0F014
:10038000128010F0030C00F01B80CCF1040CBCF1C7
:10039000020F18BF00F8012BA8BF20F8022BA1EB19
:1003A0000C0100F00DB85FEAC17C24BF00F8012BFE
:1003B00000F8012B48BF00F8012B70474FF00002F6
:1003C00000B5134694469646203922BFA0E80C504B
:1003D000A0E80C50B1F12001BFF4F7AF090728BF26
:1003E000A0E80C5048BF0CC05DF804EB890028BFA2
:1003F00040F8042B08BF704748BF20F8022B11F0CB
:10040000804F18BF00F8012B704770477047704746
:100410002DE9F0470D4699469246044600F124081E
:100420000168880604D5E06921F01001216000E030
:100430000120A84201DD471B00E00027A1697A19CD
:1004400002EB0900081AA0612078C00602D42046F9
:10045000AFF30080002608E0D4E901211AF8060075
:100460009047206A401C761C20624E45F4DB2078C1
:10047000C0060AD52046AFF3008006E0D4E901218A
:1004800030209047206A401C2062381EA7F10107E7
:10049000F4DC07E0D4E9012118F805009047206A50
:1004A000401C2062281EA5F10105F3DC2046AFF3B5
:1004B00000802078000602D50220BDE8F0870120E8
:1004C000FBE710B5436913B1AFF3008001E0FFF71C
:1004D000EDFE012010BD127800F124010A70002207
:1004E0004A700122EDE711684FF0FF32E9E70000A2
:1004F000074B70B50D467B4400F011F804462846C2
:1005000000F020F810B14FF0FF3070BD204670BDF4
:10051000F728000001694A1C02610878704700B59D
:100520008FB0CDE901310021059105497944CDE92C
:10053000031011466846FFF785FE0FB000BD0000AE
:10054000E5FFFFFF007B00F08000704710B54248D8
:100550005421FFF733FF41485421FFF72FFF404854
:100560005421FFF72BFF3F493B483C4A3F4B086073
:100570003D490A603A491960531C0365481C1065DF
:10058000012008653B48344A39A1784400F01CF941
:1005900020B9384878440A3800F0BBF937482F4A68
:1005A00035A1784400F010F920B9344878440A386D
:1005B00000F0AFF932482A4A2FA1784400F004F93C
:1005C00020B92F4878440A3800F0A3F94023224884
:1005D000DC000021224600F0D4F820B12548784400
:1005E000543800F096F91D4822464023002100F0BF
:1005F000C8F820B121487844543800F08AF91848E6
:1006000022461023002100F0BCF8002806D01C4828
:100610007844BDE81040563800F07BB910BD104852
:1006200070B5006D20F001040B4800F043F90B4851
:1006300000F040F90A4800F03DF909E0206D20F093
:100640000105204600F036F9204600F073F82C46EC
:10065000002CF3D170BD0000D40500202806002036
:100660007C0600206C000020700000207400002038
:1006700072000000F832000077000000E432000051
:10068000D03200000EB5CDE9000100F0DDFA029095
:1006900069460120ABBE0EBD08B569460090022038
:1006A000ABBE08BD1FB58DE8070069460520ABBE8F
:1006B00004B010BD1FB58DE80F0069460620ABBE23
:1006C000F6E708B5694600900920ABBE08BD1CB529
:1006D000CDE9000169460A20ABBE1CBD704708B5D4
:1006E000694600900C20ABBE08BD754600F018F9B5
:1006F000AE4605006946534620F00700854618B00F
:1007000020B5FFF781FDBDE820404FF000064FF017
:1007100000074FF000084FF0000B21F00701AC4636
:10072000ACE8C009ACE8C009ACE8C009ACE8C00955
:100730008D46704770B50446051F00F0F7F8006855
:10074000002C14BF446870BD002C18BFAC423CBFE5
:1007500020466468F8D301680A18AA4218BF4560A9
:1007600003D12A6805461144016028684119A14255
:100770001CBF6C6070BD61686960216808442860B6
:1007800070BD70B5C468A50713D0650211D4B2F569
:10079000807F09D0B2F5007F06D0B2F5806F08D116
:1007A000012300F1240106E05D1E6FF07F46B54293
:1007B00001D3012070BD0161C361416024F4706107
:1007C0001143C160002070BD2DE9F0410C46074681
:1007D0001646104600F06EF82078611C61280AD099
:1007E000722802D077283CD102E00125002405E0E0
:1007F0000225042402E0082448F2020511F8010B46
:100800002B2806D0622809D011F8010C74280AD0D0
:100810000BE045F0030544F00204EFE745F0040562
:1008200044F00104EAE744F0100438462146FFF79B
:1008300029FF411C15D00021316171604FF4007116
:10084000F560F1617061200704D530460222002175
:1008500000F0E6F8306D40F0010030653046BDE84C
:10086000F0810020FBE72DE9F0410D460646104CD3
:10087000206DC10704D0410804D020F00104F7E73F
:1008800022460EE0542000F09CF807000ED0206DA8
:1008900047F001010843542120653846FFF78EFDDB
:1008A0003A4629463046BDE8F0418DE70020D6E7BC
:1008B000D40500202DE9F04704464FF000094FF021
:1008C000FF37C568D4E90486A80707D0204600F0A2
:1008D00057F93046FFF7E0FE002802DA3846BDE857
:1008E000F087280502D54046FFF724FF4C2120461B
:1008F000FFF764FD206D20F0010020654846EEE71B
:1009000010B50446AFF300802046BDE81040FFF765
:1009100066BC10B500F07EF9BDE8104000F074B977
:1009200000487047D006002070470000004870471C
:10093000D8060020704770477047704738B50446A6
:100940000A4600206946AFF30080002808BF38BD82
:1009500002460099204600F0A4F9012038BD01208C
:1009600000F0F3B9F8B5AFF30080054600200C465F
:10097000102000BF0646A819A0420DD9324669468C
:100980000020AFF30080070008BF00F0DEF90098F8
:10099000A04218BF0546C419FFF7C8FF0560074607
:1009A000F01D20F007004619284600F073F9B44204
:1009B00008BFF8BDA21B31463868BDE8F84000F01A
:1009C00070B970B50646FFF7B1FF056806F10B0078
:1009D00020F00704B4429CBF002070BD2B466A681B
:1009E000BAB11068A04210D304F1080188423CBF9C
:1009F0005068586007D35168101941601168091B8D
:100A0000016058601460101D70BD13465268002AC2
:100A1000E7D121462846FFF791FF0028DED170BDBF
:100A20002DE9F041044616460D464769007B8007D4
:100A30002ED03846FFF745FE50BB3EB3012E02D004
:100A4000022E25D104E0204600F045F905441DE0C2
:100A50003846FFF744FEE168002841F01001E160EC
:100A600005DA204600F058F80120BDE8F081C903FE
:100A70000BD56268E16A914200D81146A26911441F
:100A80002269891A814200DD08460544002D01DAF9
:100A90000220EAE7E16A6068E268814206D29103D7
:100AA000E06203D522F4003141F01002A66900276C
:100AB000AE4213DCE16A814201D90B4600E00346F5
:100AC00003EB060C2369ACEB030CAC4506DD81425D
:100AD00001D98C4600E084469C4505D1A76027607B
:100AE00042F02000A5620DE0AD1BE669AE1B81421D
:100AF000A66000D90846C01A281A206058196060FC
:100B000022F0200003490840E060002084F848708B
:100B1000ABE70000BFCFD7FFC16821F4001141F05F
:100B20008001C16000218160016070472DE9F047BC
:100B3000814614460E464FF0FF383248D568576953
:100B4000054209D03846A169FFF7C1FD002811DB35
:100B50002C48C0430540E5602B463246494638469E
:100B6000FFF7A0FDA16920F00042B21A114400284D
:100B7000A16103D02046FFF7CFFF4046BDE8F087D4
:100B800070B504460569C06A6168884200D80846A5
:100B9000E16821F42011E160C90312D5A84208D010
:100BA0002246411B2846FFF7C1FF10B14FF0FF302E
:100BB00070BD0020E562C4E90150E06820F4803097
:100BC000E060002070BD10B50446C06820F0200031
:100BD000E060A16AA06988420DD02046FFF7D0FFEF
:100BE000E06820F4405040F01000E060A06AA0618E
:100BF0002069E062606044F24001E0688843E060A0
:100C000010BD000010000200002801D000F03CB828
:100C10007047000010B5014602A000F07DF80120E9
:100C200010BD000053494752545245443A20526582
:100C30006469726563743A2063616E2774206F7013
:100C4000656E3A200000000010B5431C02E010F869
:100C5000011B71B18107FAD14FF0013202C88C1A21
:100C60008C4314EAC211F9D0C01A0A0603D0C01E80
:100C700010BDC01A10BD0A0401D0801E10BD0902AB
:100C8000FCD0401E10BD000001491820ABBEFEE79D
:100C90002600020000210160C0E901107047102009
:100CA0007047034640688C46002818BF88423CBF06
:100CB00003464068F8D318681844884207D00CF1FE
:100CC000030020F00700001D411A521A0146081DBA
:100CD0000A60FFF72FBD10B50146C268900703D028
:100CE000900607D5886A0AE000F03EF8012101600D
:100CF000881E10BD8B69486818440B69C01A91F8AA
:100D000048301BB191F84910401A10BD1103FCD5B1
:100D10000028FADD401E10BD70B505460C460A20BD
:100D200000E06D1C00F018F835B128780028F8D1E3
:100D300002E0641C00F010F814B120780028F8D10B
:100D4000BDE870400A2000F007B810B500F010F8B8
:100D5000BDE81040FFF758BF08B569468DF80000A0
:100D60000320ABBE08BD000000487047D00600203D
:100D700010B5012805D0002103A0FFF7CDFF012009
:100D800010BD09A1F8E7000053494752544D454DA5
:100D90003A204F7574206F662068656170206D651C
:100DA0006D6F7279000000003A2048656170206D17
:100DB000656D6F727920636F72727570746564000F
:100DC000FEE7000070B50024282001F0F7FF0C4D6D
:100DD0001021284600F07EFA50B9502001F0EEFFB5
:100DE0001021284600F076FA08B1012400E0FF2423
:100DF0001021284600F06EFA0028F9D1204670BD77
:100E00000010014070B5054600F056F8FFF7DAFF14
:100E1000114C207000F022F8607000F01FF8A070F4
:100E200000F01CF8E07000F019F8207100F016F8DE
:100E3000E0806678A17823797218E1780A441A4430
:100E4000824207D1084602F0ABF82860304602F033
:100E5000A7F8686070BD0000000000202DE9F04197
:100E60000024144F01261021384600F033FA0028E0
:100E7000F9D0282001F0A2FF1021384600F02AFA0C
:100E800090B1C4F1070106FA01F02843C5B2102160
:100E9000384600F01FFA0028F9D1641CE4B2082C8F
:100EA000E1D32846BDE8F081C4F1070006FA00F05E
:100EB0008543ECE70010014010B500F01DF80D4C23
:100EC0001021204601F006FD00221021204600F0EE
:100ED00006FA142001F064FF01221021204600F0E0
:100EE000FEF91E2001F06AFF2046BDE810401021E7
:100EF00001F0E6BC001001400E48016821F080714D
:100F00000160016841F0807101600B48016821F0C7
:100F100001010160016841F00101016000214160AF
:100F200000BF00BF00BF406808B10020704701202B
:100F300070470000FCED00E0001000E0704772B662
:100F4000FEE710B590F821100022022905D00421F7
:100F5000816380F82020012010BD01680B6823F018
:100F60000E030B6001680B6823F001030B6090F81F
:100F70004030C46B012101FA03F3636080F8211053
:100F800080F82020104610BD2DE9F05F90F8211068
:100F90000024022903D004218163012485E0016833
:100FA0000A6822F00E020A6001680A6822F0010253
:100FB0000A603F4E3E4FB215DFF8F4C0DFF8F09004
:100FC000DFF8ECA0DFF8E8B0DFF8E4E00168783F94
:100FD00013011502ACF1640CA9F15009AAF13C0A05
:100FE000ABF1280BAEF1140E4FF48018B14227D9A3
:100FF000B9420ED0614512D049451DD0514518D097
:10100000594518D0714501D1424615E0294EB142EB
:1010100001D1012210E0274E1436B14201D1102235
:101020000AE0244E2836B14206D0224A3C32914290
:1010300001D11A4600E02A461E49091F0A602BE02A
:10104000B94213D0614517D0494522D051451DD032
:1010500059451DD0714501D142461AE0B14202D135
:101060004FF0807215E0134EB14201D1012210E021
:10107000104E1436B14201D110220AE00D4E28362E
:10108000B14206D00B4A3C32914201D11A4600E0EF
:101090002A46074980394A60012180F82110002141
:1010A00080F82010416B01B188472046BDE8F09FD1
:1010B000800002400804024070B5044600F014F9B4
:1010C0000546601C02D004480078044400F00CF986
:1010D000401BA042FAD370BD5C0000202DE9F84F00
:1010E000DFF8C891002409F1040A0AF1040B234631
:1010F0000F270BF1040ED1E00125A54006EA0502F9
:10110000AA4276D1DFF8A8C14E68A6EB0C08664566
:101110002BD00DDC032E34D005DC36B3012E19D0D4
:10112000022E2FD11BE0112E16D0122E2AD119E03B
:10113000B8F5881F19D006DCB8F5803F15D0B8F592
:10114000801F1FD111E0B8F5001F0ED0B8F5041FA5
:1011500018D10AE0CB6815E0CB681B1D12E0CB6804
:1011600008330FE0CB680C330CE08B682BB1012BFC
:101170004FF0080303D0456104E0042302E0056159
:1011800000E00023FF2A01D8064601E000F1040632
:101190004FEA840501D9A5F12005D6F8008007FAA9
:1011A00005FC28EA0C0803FA05F548EA0508C6F824
:1011B00000804D68ED0070D53E4DAE6946F00106E9
:1011C000AE61AD6924F0030605F0010500953A4DC6
:1011D00006EB050CDCF80850A607360F07FA06F8F0
:1011E00025EA0805DFF8D480404503D14FF0000818
:1011F00025E052E0DFF8C880404502D14FF00108F9
:101200001DE0DFF8C080404502D14FF0020816E033
:10121000DFF8B480404502D14FF003080FE0DFF85B
:10122000AC80404502D14FF0040808E0DFF8A08010
:10123000404502D14FF0050801E04FF0060808FADA
:1012400006F848EA0508CCF808804D68D9F800602F
:10125000ED034D4601D5164300E096432E604D68E0
:10126000DAF80060AD03554601D5164300E0964319
:101270002E604D68DBF80060ED025D4601D5164337
:1012800000E096432E604D68DEF80060AD027546C2
:1012900001D5164300E096432E60641C0A6816468A
:1012A000E2407FF429AFBDE8F88F00000004014060
:1012B0000000111000100240000001400008014031
:1012C000000C0140001001400014014000180140D2
:1012D000001C01408068084000D0012070470AB11E
:1012E000016170470904FBE701488068704700000E
:1012F0005C00002070B5040025D094F83D00002566
:1013000020B984F83C50204600F050F9242084F89D
:101310003D002068016821F001010160206801683A
:1013200041F4004101602068016821F4004101603E
:1013300000F0B6FA4D4A6168914201D84C4900E08C
:101340004C49884201D2012070BD4B492368B0FB53
:10135000F1F15E6826F03F060E435E6063689342DB
:1013600006D94FF4967359434FF47A73B1FBF3F1F6
:101370002368491C1E6A26F03F06314319626168E2
:10138000914210D84900401EB0FBF1F2521CC2F34A
:101390000B02042A01D2042022E0B0FBF1F0401C31
:1013A000C0F30B001CE0A268F2B301EBC10303EB36
:1013B0000116431EB3FBF6F35B1C43F480431B058D
:1013C00049D092B301EBC10202EB0111401EB0FB08
:1013D000F1F0401CC0F30B0040F4804040F40040AA
:1013E0002168CA694CF6FF739A431043C861D4E977
:1013F000071001432068026822F0C0021143016017
:10140000D4E9030101432068826848F2FF339A431C
:1014100011438160D4E9050108432168CA6822F0BC
:10142000FF021043C86001E00EE016E0206801688A
:1014300041F0010101602564202084F83D0025630E
:1014400084F83E50002070BD01EB4106431EB3FB03
:10145000F6F35B1CB3E70120C2E701EB4101401E3C
:10146000B0FBF1F0401CC0F30B00B7E7A086010011
:1014700080841E0000093D0040420F002DE9FF4F0F
:1014800083B09A46DDE9119793460446DDF8408023
:10149000FFF72AFF054694F83D0020287FD1192345
:1014A000012240492046009500F094FF002876D1A3
:1014B00094F83C00012872D0012084F83C00206898
:1014C0000168C90703D1016841F00101016020688A
:1014D000016821F400610160212084F83D00402072
:1014E00084F83E0000262664C4F82480A4F82A90DC
:1014F000608D20852C48E062CDE9007553465A4640
:101500002046049900F0ECFE70B930E02A463946D6
:10151000204600F0DEFF58B1206C042804D120687A
:10152000016841F400710160012007B0BDE8F08F4F
:10153000606A216800780861606A401C6062218DE1
:10154000491E89B22185628D521E628522685369C7
:10155000DB435B070BD469B100781061606A401C03
:101560006062208D401E2085608D401E6085208D2C
:101570000028CBD12A463946204600F005FF002836
:10158000CAD154F83D0B016841F40071016020207C
:1015900004F81E09E67766770020C6E7FFE7022019
:1015A000C3E70000020010000000FFFF30B585B067
:1015B000002100910191029103911E4D03681E4C80
:1015C000122103221D48AB4216D1A36943F0080340
:1015D000A361A369039203F008030493C023CDE938
:1015E00000316946FFF77AFDE06940F40010E061E0
:1015F000E06900F4001019E0114DAB4217D1A36966
:1016000043F00803A361A369039203F00803049362
:101610004FF44063CDE900316946FFF75FFDE069B3
:1016200040F48000E061E06900F48000049005B0BF
:1016300030BD00000054004000100240000C01408A
:101640000058004002488168027811448160704768
:101650005C000020074810B5016841F010010160EE
:10166000032000F075F8002000F006F800F024F8E0
:10167000002010BD0020024070B50D4D04464FF40F
:101680007A712878B1FBF0F00A490968B1FBF0F0F3
:1016900000F0F8FA48B9102C07D200222146501E5B
:1016A00000F036F800206C6070BD012070BD0000B5
:1016B0005C000020680000200C4808B5816941F0FA
:1016C00001018161816901F001010091C16941F06D
:1016D0008051C161C06900F08050009004484168A9
:1016E00021F0E06141F00071416008BD001002404E
:1016F00000000140002809DB00F01F020121914099
:101700004009800000F1E020C0F80011704700009F
:10171000F0B40E4B1B680C46C3F30223C3F107055C
:10172000042D00D90425191D072901D2002300E04A
:10173000DB1E012606FA05F1491E214099409E4014
:10174000761E16403143F0BC01F090BA0CED00E07B
:10175000064900F0070208684FF6FF03184040EA08
:101760000220034A10430860704700000CED00E0BF
:101770000000FA052DE9F0470F46050061D0434E01
:10178000306800F00700B84209D2306820F0070046
:1017900038433060306800F00700B84251D1286803
:1017A0003B4C810712D5400703D5606840F4E060E8
:1017B00060602878000703D5606840F4605060607E
:1017C0006068A96820F0F000084360602878C007CE
:1017D00028D06868012810D02168022810D0890715
:1017E00000292EDA616821F0030101436160FFF7EF
:1017F0007BFD804641F288390DE021688903EFE7DF
:101800008901EDE7FFF770FDA0EB0801494502D91A
:101810000320BDE8F0876068696800F00C00B0EB59
:10182000810FEFD1306800F00700B8420BD9306863
:1018300020F0070038433060306800F00700B842FD
:1018400001D00120E5E72878400705D56068E96800
:1018500020F4E060084360602878000706D56068DF
:10186000296920F4605040EAC100606000F038F857
:101870006168084AC1F30311515CC8400649086019
:1018800006480068FFF7F8FE0020C2E7002002408B
:10189000001002406E380008680000206000002040
:1018A0000448054900684968044AC1F30221515CB3
:1018B000C840704768000020001002407E380008D1
:1018C0000448054900684968044AC1F3C221515CD3
:1018D000C840704768000020001002407E380008B1
:1018E00012A185B00FC98DE80F0014A0144A00683A
:1018F00004905168134801F00C03042B10D0082BFE
:101900000ED1C1F38343C9031DF803000AD5516802
:1019100004AAC1F34041515C0A4A5043B0FBF1F0C4
:1019200005B0704708494843FAE700000203040580
:10193000060708090A0B0C0D0E0F1010010200001B
:101940000010024000127A0000093D002DE9F84F16
:10195000040070D02078C04DC00749D06868C0F33B
:101960008100012807D06868C0F38100022809D1EE
:101970006868C00306D52868800339D560680028E8
:10198000E7D035E06068B0F5803F0BD010B1B0F51E
:10199000A02F11D0286820F480302860286820F417
:1019A000802002E0286840F480302860606890B1B0
:1019B000FFF79AFC06460AE0286840F48020286079
:1019C000F0E700BFFFF790FC801B642873D82868FD
:1019D0008003F7D50CE0FFF787FC064605E000BF63
:1019E000FFF782FC801B6428F0D828688003F7D4B6
:1019F00020789A4E80074FF001094FF0000839D542
:101A0000686810F00C0F07D06868C0F381000228E6
:101A100009D16868C00306D42868800714D52069F6
:101A2000012808D110E02069B0B1C6F80090FFF796
:101A30005BFC074605E00AE1FFF756FCC01B0228E5
:101A4000C4D828688007F7D52868616920F0F800B5
:101A500040EAC10028600DE0C6F80080FFF744FCB2
:101A6000074604E0FFF740FCC01B022823D8286883
:101A70008007F7D4207800072CD57948A169D9B11F
:101A8000C0F80090FFF730FC074604E0FFF72CFC9D
:101A9000C01B02280FD8686A8007F7D571484FF439
:101AA000FA510068B0FBF1F0009000BF0098411EB1
:101AB0000091FAD20EE080E0C0F80080FFF714FC3D
:101AC000074604E0FFF710FCC01B022875D8686ABF
:101AD0008007F7D42078400760D5E8690027C00068
:101AE00008D4E86940F08050E861E869012700F017
:101AF000805000905C480168C90513D40168834692
:101B000041F480710160FFF7EFFB824606E000BF01
:101B1000FFF7EAFBA0EB0A0064284ED8DBF80000D0
:101B2000C005F5D5E06801280AD008B1052813D012
:101B3000286A20F001002862286A20F0040002E0F0
:101B4000286A40F001002862E06841F2883B98B1C1
:101B5000FFF7CAFB82460BE0286A40F004002862C7
:101B6000EEE700BFFFF7C0FBA0EB0A0159455AD8CA
:101B7000286A8007F6D50CE0FFF7B6FB824605E041
:101B8000FFF7B2FBA0EB0A0159454CD8286A800741
:101B9000F6D41FB1E86920F08050E861E06988B3AD
:101BA0006968C1F38101022944D00228C6F8608027
:101BB00004D0FFF799FB044638E034E0FFF794FBCC
:101BC000074604E0FFF790FBC01B02282BD82868CB
:101BD0008001F7D4206AB0F5803F05D16868A1681C
:101BE00020F4003008436860D4E9080108436968BC
:101BF00021F4741108436860C6F86090FFF774FB25
:101C0000044606E025E000BFFFF76EFB001B02283C
:101C100009D828688001F7D51BE000BFFFF764FBF7
:101C2000001B022802D90320BDE8F88F2868800134
:101C3000F4D40EE00128F7D06868226A00F48031FD
:101C4000914204D1616A00F47010884201D00120F1
:101C5000EAE70020E8E700000010024000004242EE
:101C60008004424268000020007000404FF0E021F4
:101C70000428086903D020F004000861704740F090
:101C80000400FAE710B5401EB0F1807F01D30120B7
:101C900010BD4FF0E02460610F21601700F0E6FFF7
:101CA0000020A06107202061002010BD7047704710
:101CB000F8B5026804461068D168536910F00F0F38
:101CC0004FF0000553D003F0010601F4907737433D
:101CD0005FD0C20705D0CA0503D5226C42F00102CD
:101CE0002264420705D5DA0703D0226C42F00202D3
:101CF0002264820705D5DA0703D0226C42F0040281
:101D00002264020707D501F02002324303D0226C7F
:101D100042F008022264226C002A34D0800604D5E6
:101D2000880602D5204600F03DFE20684069216CFF
:101D3000C0F38010090700D430B3204600F01AFE2B
:101D40002068416949061BD5416921F04001416184
:101D5000A06BA8B158494163A06BFFF715F90028A3
:101D600011D0A06B416B01B0BDE8F040084783067D
:101D70000FD58B060DD52046BDE8F84000F012BE09
:101D80002046FFF794FFF8BD2046FFF790FF25643B
:101D9000F8BD266B2023012E52D1C60650D5CE06A3
:101DA0004ED5106850680090506940062AD5A16B46
:101DB000086840680004000CEAD0A68D8642E7D986
:101DC000E0858869202818D0D06820F48070D06021
:101DD0002068416921F0010141612068416921F0D9
:101DE0004001416184F83E3025632068C16821F0DC
:101DF0001001C160A06BFFF7A4F8A08DE18D401A1F
:101E000081B219E0A08DE18D401A81B2E08D0028E9
:101E1000BED00029BCD0D06820F49070D06020687B
:101E2000426922F00102426184F83E302563206855
:101E3000C26822F01002C2602046FFF737FFF8BDEB
:101E400005062BD50D0629D594F83D002128F6D19D
:101E5000A068B0F5805F01D12069B0B1206A411C53
:101E60002162216800784860E08C401E0004000C6C
:101E7000E084E4D12068C16821F08001C16020685D
:101E8000C16841F04001C160F8BD206A0088C0F31C
:101E900008005060206A801C2062E5E74006F3D508
:101EA0004806F1D5D168204621F04001D16084F880
:101EB0003D3000F0FCF9F8BD6529000870B504005C
:101EC00004D094F83D00002510B106E0012070BD5B
:101ED00084F83C50204600F023F8242084F83D008C
:101EE0002068C16821F40051C160204600F0B6FDB1
:101EF0002068016921F4904101612068416921F065
:101F00002A0141612068C16841F40051C160256423
:101F1000202084F83D0084F83E00002070BD0000C1
:101F2000F0B585B0002400940194029403940368F2
:101F3000464F022046490322464D4602BB4225D168
:101F40008B6943F480438B618B6903F48043049372
:101F50008B6943F004038B618969039201F00401EA
:101F600004910102CDE9001069462846FFF7B6F852
:101F7000CDE90064694628460294FFF7AFF80022D5
:101F800011462520FFF7C4FB252028E0324FBB4235
:101F900029D1CB6943F40033CB61CB6903F400331F
:101FA00004938B6943F004038B618969039201F008
:101FB000040104910421CDE9001069462846FFF789
:101FC0008DF80820CDE90004694628460294FFF701
:101FD00085F8002211462620FFF79AFB2620FFF7FE
:101FE00089FB05B0F0BD1D4DAB42FAD1CB6943F47E
:101FF0008023CB61CB6903F4802304938B6943F086
:1020000010038B618969164D01F01001CDE90321A0
:10201000CDE9006069462846FFF760F8E814CDE98D
:102020000004694628460294FFF758F80D484168B5
:1020300021F0300141F0E06141F0100141600022E7
:1020400011462720FFF764FB2720C8E7003801402E
:1020500000100240000801400044004000480040D9
:10206000001001400000014090F83E30202B0ED1BE
:1020700059B152B190F83C30012B08D0012380F8BF
:102080003C300023036300F045BD0120704702206F
:10209000704700002DE9F0410746006846490025D9
:1020A000464C4FF0010888422BD1A069661C401CA9
:1020B000A061434A31781044112900F8011C04D171
:1020C000257040A06561FEF7B1F83078122807D17D
:1020D0000C20606284F800803BA06561FEF7A6F8E2
:1020E0003078132807D10D2060620220207037A0BD
:1020F0006561FEF79BF831490122491C3448FFF71E
:10210000B3FF34493868884254D1E0692B4F401CF2
:10211000314EBF1CE0613044397800F8011C327840
:10212000242A01D1C4F82080262932D1256210F852
:10213000041C3A2916D110F8061D303901EB810133
:102140004900427830390A44E260C1780079303978
:1021500001EB8101490030390844C1B22061D0B29D
:1021600000F038FDE069304410F8041C242910D137
:1021700010F8031D303901EB8101490040783039F6
:10218000014416A0A160FEF751F8217A207900F0F1
:102190003CFD206A30B9E5613D704FF4FA710E489C
:1021A000FEF7EAF8BDE8F04104490122891C124813
:1021B000FFF75ABFBDE8F081004800402C00002026
:1021C0007800002024310000243200002433000075
:1021D00090050020004400406C0200207265636599
:1021E000766564206573702054656D7065726174E6
:1021F0007572652025640A004C0500202DE9F8431E
:10220000044690F83D001F4616460D4620284CD146
:10221000C5B1BEB194F83C00012846D0012084F835
:102220003C004FF00008C4F84080212084F83D00B5
:10223000FFF75AF8A6848146E684A068B0F5805F6F
:1022400003D004E00120BDE8F883206928B12E46C0
:102250005FF0000584F83C800EE00026FAE780215C
:10226000204600F072FCA0B9AEB116F8010B21684F
:102270004860E08C401EE084E08C4B464FF000024A
:1022800000970028EBD14FF04001204600F05DFCA4
:1022900030B10320D7E735F8020BC0F30800E6E7BA
:1022A000202084F83D000020CDE70220CBE77047D6
:1022B000FEE701684A69D24352050FD46FF4806289
:1022C0004A61002140F8301F202242738173026965
:1022D00042F0040202610173012070470020704740
:1022E0002DE9F843044600680D46DDE908970168CA
:1022F0009846164641F4807101604B4600224FF02B
:1023000001112046009700F065F848B12068006888
:10231000C00502D54FF4007020640320BDE8F883A7
:10232000216805F0FE0008613B464A4615492046F3
:1023300000F084F888B920684169806900903A46C5
:102340004946204600F0C5F848B1206C042804D165
:102350002068016841F4007101600120DEE7F5B2F8
:10236000B8F1010F09D02168300A08613A464946A0
:10237000204600F0AEF80028E7D120680561002073
:10238000CCE700000200010070B516460D46044679
:102390000DE02046FFF78DFF08B1012070BD681CDD
:1023A00005D0FEF7A1FF801BA84207D835B12068F1
:1023B0004069C0434007ECD4002070BD002044F8C1
:1023C000300F20216173A073216941F02001216148
:1023D0002073E2E72DE9F0471E4690460D4604467D
:1023E000C1F30747DDF8209008E0701C06D0FEF727
:1023F0007BFFA0EB0900B0420FD876B12068012F17
:1024000018D0806925EA00000004000C14D00021D7
:102410004145EAD00020BDE8F087002044F8300FA5
:1024200020216173A073216941F020012161207393
:102430000120F0E74069E5E70121E9E72DE9F047F0
:102440009A4691460E46044600254FF02008C1F3F7
:10245000074725E020684069C043400514D4206840
:10246000016841F40071016021686FF48060486187
:10247000256384F83D8084F83E50206C40F00400D1
:10248000206484F83C501FE0B9F1FF3F08D0FEF70C
:102490002BFFA0EB0A0149450CD8B9F1000F09D078
:1024A0002068012F13D0806926EA00000004000C88
:1024B0000BD0CFE744F8305F84F80D80A573206916
:1024C00040F02000206125730120BDE8F0874069BD
:1024D000EAE770B516460D4604460DE02046FFF7C4
:1024E000E8FE08B1012070BD681C05D0FEF7FCFEB7
:1024F000801BA84207D835B120684069C043000658
:10250000ECD4002070BD002044F8300F202161730E
:10251000A073216941F0200121612073E2E70000EE
:1025200030B585B000241C480094019402940394B3
:10253000816941F020018161816901F020010491EC
:10254000816941F004018161816901F00401049114
:10255000816941F010018161816901F010010491EC
:10256000816941F00801816180690C4D00F008002B
:102570000490002210212846FEF7B1FE10200090A2
:102580000120CDE901040220039069462846FEF7A8
:10259000A5FD05B030BD0000001002400010014054
:1025A0000D4810B50B4901600C49416000214FF402
:1025B00080428160C0E9031241618161C1610162B1
:1025C000FEF798FE002803D0BDE81040FEF7B7BC28
:1025D00010BD00000054004060040020A0860100EF
:1025E0000D4810B50B4901600C49416000214FF4C2
:1025F00080428160C0E9031241618161C161016271
:10260000FEF778FE002803D0BDE81040FEF797BC27
:1026100010BD000000580040B4040020A086010056
:102620000C4810B50A4901604FF4E13141600021C6
:1026300081600C22C160C0E904128161C161FFF7B1
:102640003DFC002803D0BDE81040FEF778BC10BD6B
:1026500000380140080500200C4810B50A49016007
:102660004FF4E1314160002181600C22C160C0E97A
:1026700004128161C161FFF721FC002803D0BDE88D
:102680001040FEF75CBC10BD004400404C0500202B
:102690000C4810B50A4901604FF4E1314160002156
:1026A00081600C22C160C0E904128161C161FFF741
:1026B00005FC002803D0BDE81040FEF740BC10BD6B
:1026C0000048004090050020FEE7FEE770B50024BA
:1026D00004F1B000C0B200F0CDF8002000F0CAF85C
:1026E000102000F0C7F80025002000F0D5F86D1C80
:1026F000EDB2802DF8D3641CE4B2082CE8D370BD91
:1027000010B58D2000F0B6F8142000F0B3F8BDE845
:102710001040AF2000F0AEB810B5C820FEF7CCFCDA
:10272000BDE8104000F088BA10B50446B031C8B218
:1027300000F0A0F8102040EA141000F09BF804F01C
:102740000F00BDE8104000F095B800002DE9F04101
:10275000203A00240D468046D6B27F2803D90020B7
:102760008D1C8046EDB2102B29460FD0FFF7DCFF01
:10277000164906EB460001EB4005285D00F08CF899
:10278000641CE4B2062CF8D3BDE8F081FFF7CCFF5F
:102790000F4F00BF04EB0610385C00F07DF8641C9E
:1027A000E4B2082CF6D36D1CE9B24046FFF7BCFF3B
:1027B0005FF0000404EB06103844007A00F06CF877
:1027C000641CE4B2082CF5D3DEE7000056300008A4
:1027D0007E3200082DE9F05F0026DDF828901D46C6
:1027E00092468B46804634464FEA590723E0281B21
:1027F000401EC1B20A2000F0AFFBBAFBF0F00A2184
:10280000B0FBF1F201FB120026B9691E8C4201DA1D
:1028100038B101263030C2B207FB0480C0B24B464B
:1028200004E007FB0480C0B24B4620225946FFF764
:102830008DFF641CE4B2AC42D9D3BDE8F09F2DE912
:10284000F041984617460E46044600250DE04346E3
:1028500031462046FFF77AFF0834E4B2782C02D9DB
:102860000024B61CF6B26D1CEDB27A5D002AEED1E2
:10287000BDE8F08101B584B001214FF4807204A855
:102880008DE807000B46002278210248FEF7F6FD8E
:1028900005B000BD6004002001B584B001214FF4F3
:1028A000807204A88DE807000B4640227821024878
:1028B000FEF7E4FD05B000BD6004002070477047DE
:1028C0001FB5002200910192029203926946FEF721
:1028D00005FC1FBD1FB5002200910121CDE90112A9
:1028E000022103916946FEF7F9FB1FBDFEF7AABE60
:1028F00010B504460420FFF7B9F90148046010BD83
:102900002800002030B58FB028216846FDF756FD1D
:1029100014210AA8FDF752FD01210804CDE9001099
:102920000024029402250491CDE907504FF4E010F1
:1029300009906846FFF70AF808B172B6FEE70F2063
:10294000CDE90A054FF48060CDE90C4002210AA8C8
:102950000E94FEF70FFF002801D072B6FEE70FB00D
:1029600030BD704710B5406A0021C185C184FFF7B2
:102970009EF910BD0168CA6822F49072CA600168AD
:102980004A6922F001024A61016B012904D1016800
:10299000CA6822F01002CA60202180F83E1000218F
:1029A0000163704708B590F83E10222901D002203B
:1029B00008BD82684FF480539A4201D1016921B168
:1029C000816A9A421BD04AB10AE00268816A526861
:1029D000C2F308020A80816A891C08E0026972B1A8
:1029E0000268526802F07F020A70816A491C8162A3
:1029F000C18D491E0904090CC18503D019E0026884
:102A00005268F1E70168CA6822F02002CA600168D2
:102A1000CA6822F48072CA6001684A6922F0010221
:102A20004A61202180F83E10016B012903D0FFF795
:102A300031FB002008BD002101630168CA6822F053
:102A40001002CA6001680A68D20602D50A6849689D
:102A50000091818DFFF72AF9EBE7000070B504467D
:102A600000680169E26821F4405111430161216964
:102A7000A0680843616908432168CA6841F20C6391
:102A80009A430243CA6020684169A26921F44071F7
:102A9000114341611E492068884202D1FEF710FFB0
:102AA00001E0FEF7FDFE00EBC00101EB00126068E3
:102AB00064218000B2FBF0F3B3FBF1F36FF0180672
:102AC0007343B2FBF0F5B2FBF0F605EB830532235E
:102AD00003EB0515B5FBF1F5B6FBF1F605F0F005D6
:102AE00005EB0615B2FBF0F6B2FBF0F0B0FBF1F02F
:102AF0006FF01802504306EB800003EB0010B0FBB0
:102B0000F1F0216800F00F002844886070BD0000DB
:102B10000038014081628285C28500210164222241
:102B200080F83E2080F83C100168CA6842F4807248
:102B3000CA6001684A6942F001024A610068C168DE
:102B400041F02001C160002070472DE9F041984616
:102B500017460E460446069D1DE0681C1BD02DB18D
:102B6000FEF7C2FBA0EB0800A84214D92068C16898
:102B700021F4D071C1602068416921F001014161F7
:102B8000202084F83D0084F83E00002084F83C00BA
:102B90000320BDE8F0812068006836EA000004D018
:102BA0000020B842D9D00020F3E70120F9E7000067
:102BB0000148FFF77DB80000080500200148FFF735
:102BC00077B800004C0500200148FFF771B80000FD
:102BD00090050020F8B50C460546FFF777FD102656
:102BE00002232A460A2118460096FFF7F3FD102318
:102BF00025220C210220FFF7A9FD022322460D21E8
:102C000018460096FFF7E6FDF8BDF8B50C460546F8
:102C1000FFF75CFD102602232A460A21184600967B
:102C2000FFF7D8FD02232246102118460096FFF731
:102C3000D1FDF8BDFEE70000FEB50024094F4FF4BA
:102C4000807501263819CDE900060123002278217C
:102C500002950548FEF712FC641CE4B21B2CF1D36C
:102C6000FEBD00000C000020600400200907090ED2
:102C7000002804DB00F1E02080F80014704700F029
:102C80000F0000F1E02080F8141D704770B588B087
:102C90000D460446002620216846FDF78FFB1748A5
:102CA0006946825D8A55761C022EFADB02208DF879
:102CB0000200200A8DF80400200C8DF80500200E7B
:102CC0008DF80600280A8DF80800280C8DF80900F8
:102CD000280E8DF80A00094A00208DF803408DF86F
:102CE0000750921C0C18135C401CE3720228F9DB9D
:102CF0000D21684600F03EF808B070BD5230000863
:102D000070B588B00D460446002620216846FDF7C0
:102D100055FB17486946825D8A55761C022EFADB00
:102D200001208DF80200200A8DF80400200C8DF897
:102D30000500200E8DF80600280A8DF80800280CE2
:102D40008DF80900280E8DF80A00094A00208DF838
:102D500003408DF80750921C0C18135C401CE37262
:102D60000228F9DB0D21684600F004F808B070BDB8
:102D70005230000870B50D460646002404E0315D6F
:102D800005A0FDF753FA641CAC42F8DBBDE87040C7
:102D900002A0FDF74BBA0000256300000A00000006
:102DA00070B5054600244FF47A7603E0304600F013
:102DB00005F8641CAC42F9D370BD000070B54FF04B
:102DC000E024002265690949A36909684843A169AB
:102DD0009942FCD002D2A3EB010302E0A5EB01066D
:102DE00033441A440B468242F1D370BD28000020C0
:102DF00013B54FF6FF73012269460248FFF7FEF94B
:102E000000981CBD080500201FB5FEF723FCFFF746
:102E100079FDFFF785FBFFF7C3FBFFF7E1FBFFF74A
:102E2000FFFBFFF719FCFFF733FC4820FFF760FDBD
:102E30003F48FDF7E7FF3E48006800F095F83C4C3E
:102E40000022283C11466060501EFEF761FC012202
:102E5000611C3848FFF708F90122A11C3648FFF72A
:102E600003F90122611C3548FFF7FEF802202070AB
:102E700033A0FDF7DBF933A0FDF7D8F940F6B83001
:102E8000FEF71AF9FFF748FCFFF73AFCFFF71EFCC4
:102E900010200223009063220A211846FFF79AFCB3
:102EA00029A10DF1040C07C98CE80700102301AA21
:102EB0000A210220FFF7C3FC42F210760025207899
:102EC00020B1012809D002281ED111E06069401C00
:102ED0006061012818D11FA014E0606990FBF6F131
:102EE00006FB1100401C606101280DD115A009E00E
:102EF000606990FBF6F106FB1100401C606101283F
:102F000002D10FA0FDF792F9606A0C2802D00D28BB
:102F100005D009E0D4E90101FFF7F2FE03E0D4E9AE
:102F20000301FFF7B3FE65620120FEF7C5F8C6E7AF
:102F300054000020080500204C05002090050020CA
:102F4000243300002432000068656C6C6F204775E4
:102F50006C750000243100000246012000E050435F
:102F6000491EC9B2FBD2704741000B0ED3F19E023D
:102F700008D950F400034FEA032323FA02F048BFB4
:102F80004042704710B500F01EF800BF49922480FF
:102F9000002070476FF0004282EA20007047000076
:102FA000B0FA80F310FA03F2C3F19D030AD0D905F9
:102FB00001EB1220530638BF704700F1010008BF33
:102FC00020F0010070470EF1020E2EF0030E5EF8A5
:102FD000044B244204D44FEA4102B2F17F4F11D88E
:102FE0004FEA4003B3F17F4F0CD80ED14FEAD07CAB
:102FF000B2F17F4F0CEB4C0C0CF1020C08BF4CEB08
:10300000D17C04E04FF0080C01E04FEAD17C0CEBDE
:103010004C0324FA03F404F00704B4F1040C06D2C0
:103020000EEB840CBDE810404CF0010C6047DFE86B
:103030000CF0070802024FF00040A0F5800010BD20
:103040000846420018BFD2F1807288BF00F00040ED
:1030500010BDAA5555AA0000000000000000002F76
:10306000000000000700070000147F147F140024F4
:103070002A7F2A1200626408132300364955225021
:1030800000000503000000001C2241000000412256
:103090001C000014083E08140008083E0808000040
:1030A00000A0600000080808080800006060000038
:1030B000002010080402003E5149453E0000427FB6
:1030C0004000004261514946002141454B31001802
:1030D00014127F10002745454539003C4A494930C4
:1030E000000171090503003649494936000649497E
:1030F000291E000036360000000056360000000889
:103100001422410000141414141400004122140865
:1031100000020151090600324959513E007C12114A
:10312000127C007F49494936003E41414122007FDF
:103130004141221C007F49494941007F0909090199
:10314000003E4149497A007F0808087F0000417F1E
:103150004100002040413F01007F08142241007FD0
:1031600040404040007F020C027F007F0408107F37
:10317000003E4141413E007F09090906003E4151A0
:10318000215E007F0919294600464949493100015D
:10319000017F0101003F4040403F001F2040201FB1
:1031A000003F4038403F0063140814630007087074
:1031B000080700615149454300007F414100005527
:1031C0002A552A55000041417F00000402010204F3
:1031D00000404040404000000102040000205454E0
:1031E0005478007F48444438003844444420003830
:1031F0004444487F00385454541800087E090102A2
:103200000018A4A4A47C007F080404780000447D76
:103210004000004080847D00007F102844000000B2
:10322000417F4000007C04180478007C0804047886
:1032300000384444443800FC242424180018242472
:1032400018FC007C0804040800485454542000046E
:103250003F444020003C4040207C001C2040201C7B
:10326000003C4030403C004428102844001CA0A0F2
:10327000A07C004464544C4414141414141400002E
:10328000000000000000000000000000000000003E
:1032900000F80000000000000033300000000010C3
:1032A0000C06100C0600000000000000000040C0EA
:1032B0007840C0784000043F04043F0404000070DC
:1032C00088FC08300000001820FF211E0000F008D4
:1032D000F000E018000000211C031E211E0000F079
:1032E0000888700000001E212324192721101016C1
:1032F0000E000000000000000000000000000000C0
:1033000000E018040200000000071820400000023E
:103310000418E000000000402018070000004040B2
:1033200080F0804040000202010F01020200000014
:1033300000F0000000000101011F01010100000078
:1033400000000000000080B07000000000000000DD
:103350000000000000000001010101010101000066
:1033600000000000000000303000000000000000FD
:10337000000080601804006018060100000000E0F2
:1033800010080810E000000F102020100F0000109F
:1033900010F8000000000020203F202000000070F6
:1033A00008080888700000302824222130000030EE
:1033B0000888884830000018202020110E000000E6
:1033C000C02010F8000000070424243F240000F867
:1033D0000888880808000019212020110E0000E04C
:1033E000108888180000000F112020110E000038EE
:1033F0000808C83808000000003F00000000007006
:10340000880808887000001C222121221C0000E08E
:1034100010080810E0000000312222110F00000007
:1034200000C0C000000000000030300000000000BC
:10343000008000000000000080600000000000002C
:1034400080402010080000010204081020004040C5
:103450004040404040000404040404040400000808
:1034600010204080000000201008040201000070BD
:1034700048080808F0000000003036010000C030A5
:10348000C828E810E0000718272423140B000000C8
:10349000C038E0000000203C23020227382008F852
:1034A000888888700000203F202020110E00C03046
:1034B000080808083800071820202010080008F81D
:1034C00008080810E000203F202020100F0008F816
:1034D0008888E8081000203F20202320180008F8E2
:1034E0008888E8081000203F200003000000C0305A
:1034F00008080838000007182020221E020008F8DB
:1035000008000008F808203F210101213F200008A1
:1035100008F8080800000020203F202000000000DC
:103520000808F8080800C08080807F00000008F8C4
:1035300088C028180800203F20012638200008F8FD
:10354000080000000000203F20202020300008F864
:10355000F800F8F80800203F003F003F200008F87E
:1035600030C00008F808203F200007183F00E01096
:1035700008080810E0000F10202020100F0008F8A5
:1035800008080808F000203F210101010000E010B8
:1035900008080810E0000F18242438504F0008F8DD
:1035A000888888887000203F2000030C302000703D
:1035B0008808080838000038202121221C0018083B
:1035C00008F8080818000000203F2000000008F854
:1035D00008000008F808001F202020201F0008789D
:1035E000880000C83808000007380E010000F808FD
:1035F00000F80008F800033C0700073C0300081827
:1036000068808068180820302C03032C302008388C
:10361000C800C83808000000203F20000000100843
:103620000808C8380800203826212020180000008B
:1036300000FE020202000000007F40404000000C3B
:1036400030C000000000000000010638C000000289
:103650000202FE000000004040407F000000000029
:10366000040202020400000000000000000000004C
:103670000000000000008080808080808080000248
:103680000204000000000000000000000000000034
:103690008080808000000019242222223F2008F828
:1036A000008080000000003F112020110E0000006B
:1036B000008080800000000E1120202011000000FA
:1036C00000808088F800000E112020103F200000AC
:1036D000808080800000001F2222222213000080B0
:1036E00080F0888888180020203F202000000000FB
:1036F000808080808000006B94949493600008F830
:10370000008080800000203F210000203F200080BA
:103710009898000000000020203F202000000000BA
:1037200000809898000000C08080807F000008F82A
:10373000000080808000203F24022D3020000008FF
:1037400008F8000000000020203F202000008080BA
:10375000808080808000203F20003F20003F8080CC
:10376000008080800000203F210000203F200000DA
:10377000808080800000001F202020201F0080808B
:1037800000808000000080FFA12020110E000000BA
:10379000008080808000000E112020A0FF808080AB
:1037A00080008080800020203F2120000100000058
:1037B000808080808000003324242424190000802D
:1037C00080E0808000000000001F2020000080803A
:1037D000000000808000001F202020103F208080FB
:1037E00080000080808000010E300806010080808B
:1037F0000080008080800F300C030C300F000080B0
:103800008000808080000020312E0E3120008080DA
:1038100080000080808080818E701806010000800A
:103820008080808080000021302C22213000000028
:103830000000807C020200000000003F40400000C9
:103840000000FF00000000000000FF000000000278
:10385000027C800000000040403F000000000006A5
:10386000010102020404000000000000000000004A
:103870000000000000000102030406070809000020
:103880000000010203043A7474003A7474003A743C
:1038900074000000B4380008000000207800000028
:1038A0006C0100082C39000878000020B80C0000DA
:1038B0008801000800000000000000000000000077
:1038C000AE001040B081FFA1A6A83FC8D300D580AC
:1038D000D805D9F1DA12D8308D14AF0000000000FD
:1038E00000000000100000000000000000000000C8
:1038F00000000000000000000000000000000000C8
:1039000000000000000000000000000000000000B7
:103910000100000010000000000000000024F4007E
:0C3920000000000000000000000000009B
:0400000508000131BD
:00000001FF
