:020000040800F2
:10000000101C0020ED01000803220008D520000884
:1000100001220008B90E0008F124000800000000C9
:10002000000000000000000000000000072200089F
:1000300039100008000000000522000835220008E1
:10004000070200080702000807020008070200086C
:10005000070200080702000807020008070200085C
:10006000070200080702000807020008070200084C
:10007000070200080702000807020008070200083C
:10008000070200080702000807020008070200082C
:10009000070200080702000807020008070200081C
:1000A000070200080702000807020008070200080C
:1000B00007020008070200080702000807020008FC
:1000C00007020008070200080702000807020008EC
:1000D00007020008E52400080702000807020008DC
:1000E00007020008070200080702000807020008CC
:1000F00007020008070200080702000807020008BC
:1001000007020008070200080702000807020008AB
:10011000070200080702000807020008070200089B
:10012000070200080702000807020008070200088B
:1001300000F002F800F04AF80AA090E8000C8244AF
:100140008344AAF10107DA4501D100F03FF8AFF28C
:10015000090EBAE80F0013F0010F18BFFB1A43F0A5
:10016000010318474C2600006C260000103A24BFFB
:1001700078C878C1FAD8520724BF30C830C144BF0C
:1001800004680C607047000000230024002500264E
:10019000103A28BF78C1FBD8520728BF30C148BFEA
:1001A0000B607047642900F07580782900F0AE80FC
:1001B000002070471FB59DE8030000F04FFC00F0E1
:1001C00041FA1FBD10B500F0A6FA10BD00F009FB02
:1001D0001146FFF7EFFF02F017FA00F00DFC03B431
:1001E000FFF7F0FF03BC00F0CBFD0000094880479B
:1001F00009480047FEE7FEE7FEE7FEE7FEE7FEE709
:10020000FEE7FEE7FEE7FEE704480549054A064B20
:1002100070470000972200083101000810160020E6
:10022000101C002010180020101800200FB40449E2
:1002300010B503AA029800F0D7F910BC5DF814FBC2
:100240000415002070B5044685690068C10601D513
:10025000302600E02026C00707D070BDD4E9012178
:1002600030469047206A401C20626D1EF6D570BD56
:1002700070B5044685690078C00707D170BDD4E920
:10028000012120209047206A401C20626D1EF6D577
:1002900070BD00002DE9F041064600241068752964
:1002A000314616A510D0AFF30080002802DA404294
:1002B00013A507E031688A0701D512A502E04907B6
:1002C00004D511A5012401E0AFF3008000210A222A
:1002D00006F1240709E0B0FBF2FCB0FBF2F302FBED
:1002E0001C00303078541846491C0028F3D12346AE
:1002F0002A463046BDE8F04100F01CB9000000007D
:100300002D0000002B0000002000000070B5044606
:100310000D4621461068AFF300802188090502D5FB
:100320000F4A7A4402E00E4A7A440E32002104F168
:10033000240305E000F00F060009965D5E54491C99
:100340000028F7D120780023000704D5702D02D0B3
:1003500009B1022311322046BDE8704000F0EAB82E
:10036000442400002DE9F05F894604464FF0000A5E
:10037000DFF824B1FB44C0F820A02046E16888479C
:1003800000287DD0252806D0D4E901219047206A95
:10039000401C2062F1E700255F462046E16888475F
:1003A0002028064607DB312E05D2B81910F8200C9C
:1003B00008B10543F1E7A80701D525F00405C4F805
:1003C0001CA00027C4F818A02A2E09D0304602F03D
:1003D000A0F838B304EB8708303EC8F8186019E07D
:1003E00059F8041B204604EB87029161E1688847B5
:1003F000012F064618D1E069002820DA25F02005F3
:100400001DE0D8F8180000EB800006EB4000303803
:10041000C8F818002046E1688847064602F079F8D7
:100420000028EED1012F0AD02E2E08D12046E168F7
:1004300088477F1C0646022F45F02005C4DBA069D3
:10044000002803DA404245F00105A061E80701D029
:1004500025F01005A6B1A6F14100192802D82036D2
:1004600045F400654A463146204625604D46FFF773
:1004700099FE60B1012807D0ED1D25F0070000E0CE
:1004800007E000F1080978E705F1040975E730464F
:100490007AE7206ABDE8F09F1A2400004FF00002BE
:1004A0000429C0F0128010F0030C00F01B80CCF186
:1004B000040CBCF1020F18BF00F8012BA8BF20F8F4
:1004C000022BA1EB0C0100F00DB85FEAC17C24BF48
:1004D00000F8012B00F8012B48BF00F8012B7047F2
:1004E0004FF0000200B5134694469646203922BFCD
:1004F000A0E80C50A0E80C50B1F12001BFF4F7AF18
:10050000090728BFA0E80C5048BF0CC05DF804EBF9
:10051000890028BF40F8042B08BF704748BF20F867
:10052000022B11F0804F18BF00F8012B7047704765
:10053000704770472DE9F0470D46994692460446AC
:1005400000F124080168880604D5E06921F0100153
:10055000216000E00120A84201DD471B00E00027E8
:10056000A1697A1902EB0900081AA0612078C00677
:1005700002D42046FFF766FE002608E0D4E90121F8
:100580001AF806009047206A401C761C20624E45EF
:10059000F4DB2078C0060AD52046FFF753FE06E0BC
:1005A000D4E9012130209047206A401C2062381E87
:1005B000A7F10107F4DC07E0D4E9012118F80500F0
:1005C0009047206A401C2062281EA5F10105F3DC3B
:1005D0002046FFF74DFE2078000602D50220BDE838
:1005E000F0870120FBE70000074B70B50D467B4408
:1005F00000F011F80446284600F020F810B14FF042
:10060000FF3070BD204670BDFF1F000001694A1C0D
:1006100002610878704700B58FB0CDE90131002143
:10062000059105497944CDE9031011466846FFF765
:1006300099FE0FB000BD0000E5FFFFFF007B00F05A
:100640008000704710B542485421FFF749FF4148E8
:100650005421FFF745FF40485421FFF741FF3F4930
:100660003B483C4A3F4B08603D490A603A491960A3
:10067000531C0365481C1065012008653B48344A3B
:1006800039A1784400F01CF920B9384878440A3878
:1006900000F0BBF937482F4A35A1784400F010F933
:1006A00020B9344878440A3800F0AFF932482A4A71
:1006B0002FA1784400F004F920B92F4878440A3873
:1006C00000F0A3F940232248DC000021224600F07C
:1006D000D4F820B125487844543800F096F91D48E4
:1006E00022464023002100F0C8F820B12148784478
:1006F000543800F08AF9184822461023002100F0EF
:10070000BCF8002806D01C487844BDE81040563894
:1007100000F07BB910BD104870B5006D20F00104E9
:100720000B4800F043F90B4800F040F90A4800F08C
:100730003DF909E0206D20F00105204600F036F972
:10074000204600F073F82C46002CF3D170BD000059
:10075000B01400200415002058150020300000209F
:100760003400002038000020720000001D2100002D
:100770007700000009210000F52000000EB5CDE94A
:10078000000100F0DDFA029069460120ABBE0EBD0B
:1007900008B5694600900220ABBE08BD1FB58DE8C4
:1007A000070069460520ABBE04B010BD1FB58DE83B
:1007B0000F0069460620ABBEF6E708B56946009013
:1007C0000920ABBE08BD1CB5CDE9000169460A2071
:1007D000ABBE1CBD704708B5694600900C20ABBE8F
:1007E00008BD754600F018F9AE4605006946534647
:1007F00020F00700854618B020B5FFF705FDBDE8DD
:1008000020404FF000064FF000074FF000084FF077
:10081000000B21F00701AC46ACE8C009ACE8C00908
:10082000ACE8C009ACE8C0098D46704770B5044615
:10083000051F00F0F7F80068002C14BF446870BD75
:10084000002C18BFAC423CBF20466468F8D3016856
:100850000A18AA4218BF456003D12A680546114408
:10086000016028684119A1421CBF6C6070BD6168BD
:10087000696021680844286070BD70B5C468A50728
:1008800013D0650211D4B2F5807F09D0B2F5007F94
:1008900006D0B2F5806F08D1012300F1240106E0F3
:1008A0005D1E6FF07F46B54201D3012070BD01612E
:1008B000C361416024F470611143C160002070BDC8
:1008C0002DE9F0410C4607461646104600F06EF83A
:1008D0002078611C61280AD0722802D077283CD188
:1008E00002E00125002405E00225042402E008249A
:1008F00048F2020511F8010B2B2806D0622809D016
:1009000011F8010C74280AD00BE045F0030544F0FF
:100910000204EFE745F0040544F00104EAE744F07F
:10092000100438462146FFF729FF411C15D000214D
:10093000316171604FF40071F560F1617061200701
:1009400004D530460222002100F0E6F8306D40F078
:10095000010030653046BDE8F0810020FBE72DE95D
:10096000F0410D460646104C206DC10704D04108E9
:1009700004D020F00104F7E722460EE0542000F0F6
:100980009CF807000ED0206D47F001010843542168
:1009900020653846FFF7A4FD3A4629463046BDE8B3
:1009A000F0418DE70020D6E7B01400202DE9F04794
:1009B00004464FF000094FF0FF37C568D4E90486BC
:1009C000A80707D0204600F057F93046FFF7E0FEB1
:1009D000002802DA3846BDE8F087280502D54046EF
:1009E000FFF724FF4C212046FFF77AFD206D20F011
:1009F000010020654846EEE710B50446AFF30080DD
:100A00002046BDE81040FFF7EABB10B500F07EF9C4
:100A1000BDE8104000F074B900487047AC150020E4
:100A20007047000000487047B415002070477047B9
:100A30007047704738B504460A4600206946AFF350
:100A40000080002808BF38BD02460099204600F00B
:100A5000A4F9012038BD012000F0F3B9F8B5AFF3D7
:100A60000080054600200C46102000BF0646A8194D
:100A7000A0420DD9324669460020AFF3008007003E
:100A800008BF00F0DEF90098A04218BF0546C4195F
:100A9000FFF7C8FF05600746F01D20F00700461964
:100AA000284600F073F9B44208BFF8BDA21B3146D6
:100AB0003868BDE8F84000F070B970B50646FFF739
:100AC000B1FF056806F10B0020F00704B4429CBF9B
:100AD000002070BD2B466A68BAB11068A04210D3DE
:100AE00004F1080188423CBF5068586007D3516840
:100AF000101941601168091B016058601460101DD5
:100B000070BD13465268002AE7D121462846FFF7F8
:100B100091FF0028DED170BD2DE9F0410446164654
:100B20000D464769007B80072ED03846FFF745FE0B
:100B300050BB3EB3012E02D0022E25D104E0204648
:100B400000F045F905441DE03846FFF744FEE16832
:100B5000002841F01001E16005DA204600F058F865
:100B60000120BDE8F081C9030BD56268E16A9142BA
:100B700000D81146A26911442269891A814200DD18
:100B800008460544002D01DA0220EAE7E16A6068C0
:100B9000E268814206D29103E06203D522F400317B
:100BA00041F01002A6690027AE4213DCE16A8142DF
:100BB00001D90B4600E0034603EB060C2369ACEBBE
:100BC000030CAC4506DD814201D98C4600E0844629
:100BD0009C4505D1A760276042F02000A5620DE08A
:100BE000AD1BE669AE1B8142A66000D90846C01A5B
:100BF000281A20605819606022F02000034908403C
:100C0000E060002084F84870ABE70000BFCFD7FF5A
:100C1000C16821F4001141F08001C16000218160B0
:100C2000016070472DE9F047814614460E464FF0AB
:100C3000FF383248D5685769054209D03846A1695E
:100C4000FFF7C1FD002811DB2C48C0430540E560DB
:100C50002B46324649463846FFF7A0FDA16920F0F1
:100C60000042B21A11440028A16103D02046FFF7C8
:100C7000CFFF4046BDE8F08770B504460569C06AFD
:100C80006168884200D80846E16821F42011E160DB
:100C9000C90312D5A84208D02246411B2846FFF7B7
:100CA000C1FF10B14FF0FF3070BD0020E562C4E914
:100CB0000150E06820F48030E060002070BD10B585
:100CC0000446C06820F02000E060A16AA069884264
:100CD0000DD02046FFF7D0FFE06820F4405040F0F0
:100CE0001000E060A06AA0612069E062606044F2E8
:100CF0004001E0688843E06010BD00001000020081
:100D0000002801D000F03CB87047000010B5014643
:100D100002A000F07DF8012010BD000053494752A9
:100D2000545245443A2052656469726563743A20AE
:100D300063616E2774206F70656E3A2000000000BA
:100D400010B5431C02E010F8011B71B18107FAD104
:100D50004FF0013202C88C1A8C4314EAC211F9D048
:100D6000C01A0A0603D0C01E10BDC01A10BD0A0466
:100D700001D0801E10BD0902FCD0401E10BD000035
:100D800001491820ABBEFEE72600020000210160E9
:100D9000C0E90110704710207047034640688C4638
:100DA000002818BF88423CBF03464068F8D3186843
:100DB0001844884207D00CF1030020F00700001D02
:100DC000411A521A0146081D0A60FFF72FBD10B5DF
:100DD0000146C268900703D0900607D5886A0AE0EA
:100DE00000F03EF801210160881E10BD8B69486843
:100DF00018440B69C01A91F848301BB191F849109A
:100E0000401A10BD1103FCD50028FADD401E10BDAC
:100E100070B505460C460A2000E06D1C00F018F87D
:100E200035B128780028F8D102E0641C00F010F8F1
:100E300014B120780028F8D1BDE870400A2000F0F5
:100E400007B810B500F010F8BDE81040FFF758BF24
:100E500008B569468DF800000320ABBE08BD000050
:100E600000487047AC15002010B5012805D00021BE
:100E700003A0FFF7CDFF012010BD09A1F8E7000096
:100E800053494752544D454D3A204F7574206F6673
:100E90002068656170206D656D6F727900000000DB
:100EA0003A2048656170206D656D6F727920636FBF
:100EB0007272757074656400FEE7000070B50024FE
:100EC000282001F07FFB0C4D0421284600F080FA19
:100ED00050B9502001F076FB0421284600F078FA42
:100EE00008B1012400E0FF240421284600F070FA34
:100EF0000028F9D1204670BD000C014070B50546B0
:100F000000F056F8FFF7DAFF114C207000F022F8DD
:100F1000607000F01FF8A07000F01CF8E07000F0A6
:100F200019F8207100F016F8E0806678A17823792E
:100F30007218E1780A441A44824207D1084601F047
:100F4000ADFB2860304601F0A9FB686070BD000071
:100F5000180000202DE9F0410024144F012604213F
:100F6000384600F035FA0028F9D0282001F02AFB95
:100F70000421384600F02CFA90B1C4F1070106FABA
:100F800001F02843C5B20421384600F021FA0028B8
:100F9000F9D1641CE4B2082CE1D32846BDE8F08105
:100FA000C4F1070006FA00F08543ECE7000C0140AD
:100FB00010B500F01FF80E4C0421204601F02EF968
:100FC00000220421204600F008FA44F2506001F0AB
:100FD000F9FA01220421204600F0FFF9142001F063
:100FE000F1FA2046BDE81040042101F00DB90000DF
:100FF000000C01400E48016821F080710160016819
:1010000041F0807101600B48016821F0010101602D
:10101000016841F0010101600021416000BF00BF93
:1010200000BF406808B100207047012070470000F1
:10103000FCED00E0001000E0704772B6FEE710B56E
:1010400090F821100022022905D00421816380F844
:101050002020012010BD01680B6823F00E030B60F7
:1010600001680B6823F001030B6090F84030C46BFB
:10107000012101FA03F3636080F8211080F8202039
:10108000104610BD2DE9F05F90F8211000240229D0
:1010900003D004218163012485E001680A6822F0FD
:1010A0000E020A6001680A6822F001020A603F4EDF
:1010B0003E4FB215DFF8F4C0DFF8F090DFF8ECA097
:1010C000DFF8E8B0DFF8E4E00168783F13011502CB
:1010D000ACF1640CA9F15009AAF13C0AABF1280B60
:1010E000AEF1140E4FF48018B14227D9B9420ED098
:1010F000614512D049451DD0514518D0594518D0E9
:10110000714501D1424615E0294EB14201D101227B
:1011100010E0274E1436B14201D110220AE0244ECD
:101120002836B14206D0224A3C32914201D11A46B9
:1011300000E02A461E49091F0A602BE0B94213D07D
:10114000614517D0494522D051451DD059451DD084
:10115000714501D142461AE0B14202D14FF080728E
:1011600015E0134EB14201D1012210E0104E1436A9
:10117000B14201D110220AE00D4E2836B14206D00C
:101180000B4A3C32914201D11A4600E02A460749F7
:1011900080394A60012180F82110002180F8201058
:1011A000416B01B188472046BDE8F09F80000240B6
:1011B0000804024070B5044600F014F90546601CAE
:1011C00002D004480078044400F00CF9401BA0420F
:1011D000FAD370BD200000202DE9F84FDFF8C89148
:1011E000002409F1040A0AF1040B23460F270BF12E
:1011F000040ED1E00125A54006EA0502AA4276D1F7
:10120000DFF8A8C14E68A6EB0C0866452BD00DDCB4
:10121000032E34D005DC36B3012E19D0022E2FD187
:101220001BE0112E16D0122E2AD119E0B8F5881F16
:1012300019D006DCB8F5803F15D0B8F5801F1FD156
:1012400011E0B8F5001F0ED0B8F5041F18D10AE060
:10125000CB6815E0CB681B1D12E0CB6808330FE0AC
:10126000CB680C330CE08B682BB1012B4FF00803DB
:1012700003D0456104E0042302E0056100E000239F
:10128000FF2A01D8064601E000F104064FEA840572
:1012900001D9A5F12005D6F8008007FA05FC28EA57
:1012A0000C0803FA05F548EA0508C6F800804D6801
:1012B000ED0070D53E4DAE6946F00106AE61AD69F8
:1012C00024F0030605F0010500953A4D06EB050CE8
:1012D000DCF80850A607360F07FA06F825EA0805D5
:1012E000DFF8D480404503D14FF0000825E052E0FC
:1012F000DFF8C880404502D14FF001081DE0DFF85B
:10130000C080404502D14FF0020816E0DFF8B480FB
:10131000404502D14FF003080FE0DFF8AC804045B4
:1013200002D14FF0040808E0DFF8A080404502D168
:101330004FF0050801E04FF0060808FA06F848EA01
:101340000508CCF808804D68D9F80060ED034D46DB
:1013500001D5164300E096432E604D68DAF8006030
:10136000AD03554601D5164300E096432E604D6807
:10137000DBF80060ED025D4601D5164300E09643C0
:101380002E604D68DEF80060AD02754601D516434B
:1013900000E096432E60641C0A681646E2407FF423
:1013A00029AFBDE8F88F00000004014000001110D3
:1013B000001002400000014000080140000C014004
:1013C000001001400014014000180140001C0140C1
:1013D0008068084000D0012070470AB10161704761
:1013E0000904FBE7014880687047000020000020E6
:1013F00070B5040025D094F83D00002520B984F88C
:101400003C50204600F0B8F8242084F83D002068C5
:10141000016821F0010101602068016841F4004188
:1014200001602068016821F40041016000F024FAA5
:101430004D4A6168914201D84C4900E04C498842CC
:1014400001D2012070BD4B492368B0FBF1F15E6809
:1014500026F03F060E435E606368934206D94FF460
:10146000967359434FF47A73B1FBF3F12368491C27
:101470001E6A26F03F06314319626168914210D816
:101480004900401EB0FBF1F2521CC2F30B02042AC9
:1014900001D2042022E0B0FBF1F0401CC0F30B00AD
:1014A0001CE0A268F2B301EBC10303EB0116431E7B
:1014B000B3FBF6F35B1C43F480431B0549D092B3A6
:1014C00001EBC10202EB0111401EB0FBF1F0401C28
:1014D000C0F30B0040F4804040F400402168CA692A
:1014E0004CF6FF739A431043C861D4E907100143D7
:1014F0002068026822F0C00211430160D4E90301B0
:1015000001432068826848F2FF339A4311438160A7
:10151000D4E9050108432168CA6822F0FF0210439C
:10152000C86001E00EE016E02068016841F00101AA
:1015300001602564202084F83D00256384F83E5036
:10154000002070BD01EB4106431EB3FBF6F35B1CAC
:10155000B3E70120C2E701EB4101401EB0FBF1F00F
:10156000401CC0F30B00B7E7A086010080841E007A
:1015700000093D0040420F0030B585B000210091C8
:101580000191029103911E4D03681E4C122103220A
:101590001D48AB4216D1A36943F00803A361A369B8
:1015A000039203F008030493C023CDE90031694698
:1015B000FFF712FEE06940F40010E061E06900F41A
:1015C000001019E0114DAB4217D1A36943F0080395
:1015D000A361A369039203F0080304934FF44063EB
:1015E000CDE900316946FFF7F7FDE06940F480007E
:1015F000E061E06900F48000049005B030BD0000B7
:101600000054004000100240000C0140005800400F
:1016100002488168027811448160704720000020F0
:10162000074810B5016841F010010160032000F087
:1016300075F8002000F006F800F024F8002010BD36
:101640000020024070B50D4D04464FF47A712878A1
:10165000B1FBF0F00A490968B1FBF0F000F0F2FAD2
:1016600048B9102C07D200222146501E00F036F84F
:1016700000206C6070BD012070BD000020000020C3
:101680002C0000200C4808B5816941F001018161FE
:10169000816901F001010091C16941F08051C1618E
:1016A000C06900F0805000900448416821F0E0617A
:1016B00041F00071416008BD00100240000001408F
:1016C000002809DB00F01F02012191404009800041
:1016D00000F1E020C0F8001170470000F0B40E4B9C
:1016E0001B680C46C3F30223C3F10705042D00D980
:1016F0000425191D072901D2002300E0DB1E012665
:1017000006FA05F1491E214099409E40761E16407A
:101710003143F0BC00F0EDBE0CED00E0064900F0F6
:10172000070208684FF6FF03184040EA0220034A08
:1017300010430860704700000CED00E00000FA055F
:101740002DE9F0470F46050061D0434E306800F0A8
:101750000700B84209D2306820F0070038433060F3
:10176000306800F00700B84251D128683B4C81072F
:1017700012D5400703D5606840F4E06060602878C7
:10178000000703D5606840F4605060606068A96835
:1017900020F0F000084360602878C00728D068680F
:1017A000012810D02168022810D0890700292EDADC
:1017B000616821F0030101436160FFF713FE804679
:1017C00041F288390DE021688903EFE78901EDE7EF
:1017D000FFF708FEA0EB0801494502D90320BDE848
:1017E000F0876068696800F00C00B0EB810FEFD102
:1017F000306800F00700B8420BD9306820F00700CD
:1018000038433060306800F00700B84201D0012052
:10181000E5E72878400705D56068E96820F4E060CE
:10182000084360602878000706D56068296920F4BD
:10183000605040EAC100606000F03EF86168084A0C
:10184000C1F30311515CC8400649086006480068AE
:10185000FFF7F8FE0020C2E700200240001002401F
:10186000522700082C0000202400002001480068B6
:10187000704700002C0000200448054900684968B2
:10188000044AC1F30221515CC84070472C0000207B
:1018900000100240622700080448054900684968B2
:1018A000044AC1F3C221515CC84070472C0000209B
:1018B000001002406227000812A185B00FC98DE810
:1018C0000F0014A0144A006804905168134801F0F6
:1018D0000C03042B10D0082B0ED1C1F38343C90392
:1018E0001DF803000AD5516804AAC1F34041515CB8
:1018F0000A4A5043B0FBF1F005B07047084948432D
:10190000FAE7000002030405060708090A0B0C0D9C
:101910000E0F1010010200000010024000127A00A9
:1019200000093D002DE9F84F040070D02078C04D2B
:10193000C00749D06868C0F38100012807D06868F3
:10194000C0F38100022809D16868C00306D5286861
:10195000800339D560680028E7D035E06068B0F5CD
:10196000803F0BD010B1B0F5A02F11D0286820F423
:1019700080302860286820F4802002E0286840F445
:1019800080302860606890B1FFF72CFD06460AE0C1
:10199000286840F480202860F0E700BFFFF722FDB0
:1019A000801B642873D828688003F7D50CE0FFF704
:1019B00019FD064605E000BFFFF714FD801B6428F3
:1019C000F0D828688003F7D420789A4E80074FF02B
:1019D00001094FF0000839D5686810F00C0F07D0E6
:1019E0006868C0F38100022809D16868C00306D482
:1019F0002868800714D52069012808D110E02069E3
:101A0000B0B1C6F80090FFF7EDFC074605E00AE12B
:101A1000FFF7E8FCC01B0228C4D828688007F7D568
:101A20002868616920F0F80040EAC10028600DE0F4
:101A3000C6F80080FFF7D6FC074604E0FFF7D2FCAB
:101A4000C01B022823D828688007F7D42078000715
:101A50002CD57948A169D9B1C0F80090FFF7C2FC34
:101A6000074604E0FFF7BEFCC01B02280FD8686AD7
:101A70008007F7D571484FF4FA510068B0FBF1F0D8
:101A8000009000BF0098411E0091FAD20EE080E065
:101A9000C0F80080FFF7A6FC074604E0FFF7A2FCB1
:101AA000C01B022875D8686A8007F7D420784007E1
:101AB00060D5E8690027C00008D4E86940F080508C
:101AC000E861E869012700F0805000905C480168F7
:101AD000C90513D40168834641F480710160FFF7A2
:101AE00081FC824606E000BFFFF77CFCA0EB0A0009
:101AF00064284ED8DBF80000C005F5D5E068012861
:101B00000AD008B1052813D0286A20F00100286205
:101B1000286A20F0040002E0286A40F001002862F0
:101B2000E06841F2883B98B1FFF75CFC82460BE02D
:101B3000286A40F004002862EEE700BFFFF752FC7D
:101B4000A0EB0A0159455AD8286A8007F6D50CE05F
:101B5000FFF748FC824605E0FFF744FCA0EB0A01D2
:101B600059454CD8286A8007F6D41FB1E86920F09F
:101B70008050E861E06988B36968C1F38101022996
:101B800044D00228C6F8608004D0FFF72BFC04463E
:101B900038E034E0FFF726FC074604E0FFF722FCBC
:101BA000C01B02282BD828688001F7D4206AB0F522
:101BB000803F05D16868A16820F400300843686060
:101BC000D4E908010843696821F474110843686086
:101BD000C6F86090FFF706FC044606E025E000BF6B
:101BE000FFF700FC001B022809D828688001F7D500
:101BF0001BE000BFFFF7F6FB001B022802D9032001
:101C0000BDE8F88F28688001F4D40EE00128F7D0F1
:101C10006868226A00F48031914204D1616A00F45C
:101C20007010884201D00120EAE70020E8E70000B8
:101C30000010024000004242800442422C0000207A
:101C40000070004010B5401EB0F1807F01D301202C
:101C500010BD4FF0E02460610F21601700F049FCD7
:101C60000020A06107202061002010BD7047704750
:101C7000F8B5026804461068D168536910F00F0F78
:101C80004FF0000553D003F0010601F4907737437D
:101C90005FD0C20705D0CA0503D5226C42F001020D
:101CA0002264420705D5DA0703D0226C42F0020213
:101CB0002264820705D5DA0703D0226C42F00402C1
:101CC0002264020707D501F02002324303D0226CC0
:101CD00042F008022264226C002A34D0800604D527
:101CE000880602D5204600F0F7FA20684069216C8A
:101CF000C0F38010090700D430B3204600F0D4FAB6
:101D00002068416949061BD5416921F040014161C4
:101D1000A06BA8B158494163A06BFFF7B3F9002845
:101D200011D0A06B416B01B0BDE8F04008478306BD
:101D30000FD58B060DD52046BDE8F84000F0CCBA93
:101D40002046FFF794FFF8BD2046FFF790FF25647B
:101D5000F8BD266B2023012E52D1C60650D5CE06E3
:101D60004ED5106850680090506940062AD5A16B86
:101D7000086840680004000CEAD0A68D8642E7D9C6
:101D8000E0858869202818D0D06820F48070D06061
:101D90002068416921F0010141612068416921F019
:101DA0004001416184F83E3025632068C16821F01C
:101DB0001001C160A06BFFF742F9A08DE18D401AC0
:101DC00081B219E0A08DE18D401A81B2E08D00282A
:101DD000BED00029BCD0D06820F49070D0602068BC
:101DE000426922F00102426184F83E302563206896
:101DF000C26822F01002C2602046FFF737FFF8BD2C
:101E000005062BD50D0629D594F83D002128F6D1DD
:101E1000A068B0F5805F01D12069B0B1206A411C93
:101E20002162216800784860E08C401E0004000CAC
:101E3000E084E4D12068C16821F08001C16020689D
:101E4000C16841F04001C160F8BD206A0088C0F35C
:101E500008005060206A801C2062E5E74006F3D548
:101E60004806F1D5D168204621F04001D16084F8C0
:101E70003D3000F02EF9F8BD9922000870B504003D
:101E800004D094F83D00002510B106E0012070BD9B
:101E900084F83C50204600F023F8242084F83D00CC
:101EA0002068C16821F40051C160204600F070FA3A
:101EB0002068016921F4904101612068416921F0A5
:101EC0002A0141612068C16841F40051C160256464
:101ED000202084F83D0084F83E00002070BD000002
:101EE00030B585B0002400940194029403940068F6
:101EF000184988422CD11848816941F48041816198
:101F0000816901F480410491816941F0040181619A
:101F10008069124D00F0040004904FF400700090AE
:101F2000022001900320039069462846FFF754F9E8
:101F30002815CDE90004694628460294FFF74CF9BC
:101F4000002211462520FFF7C9FB2520FFF7B8FB2B
:101F500005B030BD003801400010024000080140CB
:101F600090F83E30202B0ED159B152B190F83C3050
:101F7000012B08D0012380F83C300023036300F0DC
:101F800063BA012070470220704700002DE9F04736
:101F90001648174E054641680027491C41602A78BB
:101FA00073180D2A03F8012C18D1804611A0FEF7F2
:101FB0003DF9B1460024464607E000BF19F8042069
:101FC00021460FA0FEF732F9641C70688442F5DBED
:101FD00041F288310648FEF761FA77602F70BDE85C
:101FE000F047012201490D48FFF7BABF0000002069
:101FF0003C00002052584C656E3D25640D0A0000DF
:10200000554152542044617461427566665B256493
:102010005D203D20307825780D0A00006C140020EA
:102020002DE9F843044690F83D001F4616460D463C
:1020300020284CD1C5B1BEB194F83C00012846D04F
:10204000012084F83C004FF00008C4F840802120B3
:1020500084F83D00FFF7C6F9A6848146E684A068AF
:10206000B0F5805F03D004E00120BDE8F88320696B
:1020700028B12E465FF0000584F83C800EE0002673
:10208000FAE78021204600F0FAF9A0B9AEB116F8BF
:10209000010B21684860E08C401EE084E08C4B46D8
:1020A0004FF0000200970028EBD14FF0400120468E
:1020B00000F0E5F930B10320D7E735F8020BC0F3A3
:1020C0000800E6E7202084F83D000020CDE702204C
:1020D000CBE77047FEE7000030B585B00024184814
:1020E0000094019402940394816941F0200181617C
:1020F000816901F020010491816941F00801816149
:10210000816901F008010491816941F00401816154
:1021100080690C4D00F00400049000220421284640
:10212000FFF75BF9042000900120CDE901040220B3
:10213000039069462846FFF74FF805B030BD000010
:1021400000100240000C01400D4810B50B49016021
:102150000C49416000214FF480428160C0E90312C4
:1021600041618161C1610162FFF742F9002803D03A
:10217000BDE81040FEF761BF10BD000000540040F4
:10218000C4130020A08601000D4810B50B49016062
:102190000C49416000214FF480428160C0E9031284
:1021A00041618161C1610162FFF722F9002803D01A
:1021B000BDE81040FEF741BF10BD000000580040D0
:1021C00018140020A08601000C4810B50A490160CF
:1021D0004FF4E1314160002181600C22C160C0E90F
:1021E00004128161C161FFF749FE002803D0BDE8F8
:1021F0001040FEF722BF10BD003801406C140020D3
:10220000FEE7FEE7704770471FB50022009101927C
:10221000029203926946FEF7DFFF1FBD1FB5002241
:1022200000910121CDE90112022103916946FEF7D7
:10223000D3FF1FBDFFF7ECB930B58FB0282168463A
:10224000FEF74EF914210AA8FEF74AF90121080405
:10225000CDE900100024029402250491CDE9075035
:102260004FF4E01009906846FFF75CFB08B172B6C6
:10227000FEE70F20CDE90A054FF48060CDE90C4060
:1022800002210AA80E94FFF75BFA002801D072B66B
:10229000FEE70FB030BD704710B5406A0021C18520
:1022A000C184FFF7E4FC10BD0168CA6822F4907293
:1022B000CA6001684A6922F001024A61016B012982
:1022C00004D10168CA6822F01002CA60202180F897
:1022D0003E1000210163704708B590F83E10222996
:1022E00001D0022008BD82684FF480539A4201D188
:1022F000016921B1816A9A421BD04AB10AE00268A1
:10230000816A5268C2F308020A80816A891C08E067
:10231000026972B10268526802F07F020A70816A33
:10232000491C8162C18D491E0904090CC18503D075
:1023300019E002685268F1E70168CA6822F02002D9
:10234000CA600168CA6822F48072CA6001684A697A
:1023500022F001024A61202180F83E10016B012920
:1023600003D0FFF713FE002008BD002101630168C0
:10237000CA6822F01002CA6001680A68D20602D553
:102380000A6849680091818DFFF770FCEBE7000057
:1023900070B5044600680169E26821F440511143B8
:1023A00001612169A0680843616908432168CA681E
:1023B00041F20C639A430243CA6020684169A269F2
:1023C00021F44071114341611E492068884202D1C5
:1023D000FFF762FA01E0FFF74FFA00EBC00101EBF3
:1023E0000012606864218000B2FBF0F3B3FBF1F3EC
:1023F0006FF018067343B2FBF0F5B2FBF0F605EB95
:102400008305322303EB0515B5FBF1F5B6FBF1F6B9
:1024100005F0F00505EB0615B2FBF0F6B2FBF0F0A7
:10242000B0FBF1F06FF01802504306EB800003EBB5
:102430000010B0FBF1F0216800F00F002844886024
:1024400070BD00000038014081628285C285002194
:102450000164222280F83E2080F83C100168CA689E
:1024600042F48072CA6001684A6942F001024A611E
:102470000068C16841F02001C160002070472DE96B
:10248000F041984617460E460446069D1DE0681C1E
:102490001BD02DB1FEF7A6FFA0EB0800A84214D96F
:1024A0002068C16821F4D071C1602068416921F0C1
:1024B00001014161202084F83D0084F83E000020A5
:1024C00084F83C000320BDE8F0812068006836EA0B
:1024D000000004D00020B842D9D00020F3E701204A
:1024E000F9E700000148FFF7C3BB00006C140020AF
:1024F000FEE70907090E002804DB00F1E02080F860
:102500000014704700F00F0000F1E02080F8141D67
:10251000704730380A2801D20120704700207047E8
:1025200070B588B00D460446002620216846FDF7A8
:10253000D7FF17486946825D8A55761C022EFADB62
:1025400001208DF80200200A8DF80400200C8DF87F
:102550000500200E8DF80600280A8DF80800280CCA
:102560008DF80900280E8DF80A00094A00208DF820
:1025700003408DF80750921C0C18135C401CE3724A
:102580000228F9DB0D21684600F004F808B070BDA0
:102590004E27000870B50D460646002404E0315D64
:1025A00005A0FDF743FE641CAC42F8DBBDE87040BB
:1025B00003A0FDF73BBE000025303258200000008C
:1025C0000A00000031B5084D6C68FFF74FF9074964
:1025D000B0FBF1F000994843009068680099001B37
:1025E0008842FAD338BD0000001000E040420F00DE
:1025F00013B54FF6FF73012269460248FFF710FD3D
:1026000000981CBD6C140020FFF70AF8FFF714FEB9
:10261000FFF762FDFFF798FDFFF7B6FDFFF7D4FD6A
:1026200001220E490E48FFF79BFC0C4D0B4C103558
:1026300042F2107609481030FEF760FC286800F07E
:1026400011F8A060686800F00DF8E0603046FEF711
:10265000B1FDD4E90201FFF763FFEBE700000020C2
:102660006C14002041000B0ED3F19E0208D950F4E7
:1026700000034FEA032323FA02F048BF40427047A9
:1026800010B500F01EF800BF49922480002070476A
:102690006FF0004282EA200070470000B0FA80F339
:1026A00010FA03F2C3F19D030AD0D90501EB122001
:1026B000530638BF704700F1010008BF20F0010049
:1026C00070470EF1020E2EF0030E5EF8044B24420A
:1026D00004D44FEA4102B2F17F4F11D84FEA4003D0
:1026E000B3F17F4F0CD80ED14FEAD07CB2F17F4FBF
:1026F0000CEB4C0C0CF1020C08BF4CEBD17C04E051
:102700004FF0080C01E04FEAD17C0CEB4C0324FAAB
:1027100003F404F00704B4F1040C06D20EEB840CAD
:10272000BDE810404CF0010C6047DFE80CF00708F2
:1027300002024FF00040A0F5800010BD08464200A4
:1027400018BFD2F1807288BF00F0004010BDAA55BA
:1027500055AA000000000000000001020304060763
:10276000080900000000010203043031323334351F
:1027700036373839414243444546403058003031BD
:1027800032333435363738396162636465664030D8
:1027900078000400000800000000000000020001B2
:1027A0000000103A7474003A7474003A74740000B3
:1027B000D0270008000000203C0000006C01000849
:1027C0000C2800083C000020D41B000088010008F1
:1027D00000000000000000000000000000000000F9
:1027E00000000000000000000000000000000000E9
:1027F0000100000010000000000000000024F400B0
:0C280000000000000000000000000000CC
:0400000508000131BD
:00000001FF
