:020000040800F2
:100000000005002045010008DF0D0008E50C000890
:10001000DD0D0008B1010008010F0008000000001C
:10002000000000000000000000000000E30D0008D8
:10003000B301000800000000E10D0008E50D000814
:100040005F0100085F0100085F0100085F01000810
:100050005F0100085F0100085F0100085F01000800
:100060005F0100085F0100085F0100085F010008F0
:100070005F0100085F0100085F0100085F010008E0
:100080005F0100085F0100085F0100085F010008D0
:100090005F0100085F0100085F0100085F010008C0
:1000A0005F0100085F0100085F0100085F010008B0
:1000B0005F0100085F0100085F0100085F010008A0
:1000C0005F0100085F0100085F0100085F01000890
:1000D0005F0100085F0100085F0100085F01000880
:1000E0005F0100085F0100085F0100085F01000870
:1000F0005F0100085F0100085F0100085F01000860
:100100005F0100085F0100085F0100085F0100084F
:100110005F0100085F0100085F0100085F0100083F
:100120005F0100085F0100085F0100085F0100082F
:10013000DFF80CD000F02AF800480047410F000813
:10014000000500200648804706480047FEE7FEE716
:10015000FEE7FEE7FEE7FEE7FEE7FEE7FEE7FEE777
:10016000470E000831010008D2B201E000F8012B6F
:10017000491EFBD270470022F6E710B513460A4627
:1001800004461946FFF7F0FF204610BD064C074D08
:1001900006E0E06840F0010394E807009847103457
:1001A000AC42F6D3FFF7C8FF740F0008940F0008A5
:1001B000FEE7704772B6FEE72DE9F84FDFF8C89109
:1001C000002409F1040A0AF1040B23460F270BF15E
:1001D000040ED1E00125A54006EA0502AA4276D127
:1001E000DFF8A8C14E68A6EB0C0866452BD00DDCE5
:1001F000032E34D005DC36B3012E19D0022E2FD1B8
:100200001BE0112E16D0122E2AD119E0B8F5881F46
:1002100019D006DCB8F5803F15D0B8F5801F1FD186
:1002200011E0B8F5001F0ED0B8F5041F18D10AE090
:10023000CB6815E0CB681B1D12E0CB6808330FE0DC
:10024000CB680C330CE08B682BB1012B4FF008030B
:1002500003D0456104E0042302E0056100E00023CF
:10026000FF2A01D8064601E000F104064FEA8405A2
:1002700001D9A5F12005D6F8008007FA05FC28EA87
:100280000C0803FA05F548EA0508C6F800804D6831
:10029000ED0070D53E4DAE6946F00106AE61AD6928
:1002A00024F0030605F0010500953A4D06EB050C18
:1002B000DCF80850A607360F07FA06F825EA080505
:1002C000DFF8D480404503D14FF0000825E052E02C
:1002D000DFF8C880404502D14FF001081DE0DFF88B
:1002E000C080404502D14FF0020816E0DFF8B4802C
:1002F000404502D14FF003080FE0DFF8AC804045E5
:1003000002D14FF0040808E0DFF8A080404502D198
:100310004FF0050801E04FF0060808FA06F848EA31
:100320000508CCF808804D68D9F80060ED034D460B
:1003300001D5164300E096432E604D68DAF8006060
:10034000AD03554601D5164300E096432E604D6837
:10035000DBF80060ED025D4601D5164300E09643F0
:100360002E604D68DEF80060AD02754601D516437B
:1003700000E096432E60641C0A681646E2407FF453
:1003800029AFBDE8F88F0000000401400000111003
:10039000001002400000014000080140000C014034
:1003A000001001400014014000180140001C0140F1
:1003B00001488068704700000000002070B504000C
:1003C00025D094F83D00002520B984F83C50204603
:1003D00000F0B8F8242084F83D002068016821F07E
:1003E000010101602068016841F40041016020685A
:1003F000016821F40041016000F010FA4D4A616883
:10040000914201D84C4900E04C49884201D2012078
:1004100070BD4B492368B0FBF1F15E6826F03F06E2
:100420000E435E606368934206D94FF49673594356
:100430004FF47A73B1FBF3F12368491C1E6A26F06E
:100440003F06314319626168914210D84900401E4D
:10045000B0FBF1F2521CC2F30B02042A01D20420B9
:1004600022E0B0FBF1F0401CC0F30B001CE0A268DE
:10047000F2B301EBC10303EB0116431EB3FBF6F32A
:100480005B1C43F480431B0549D092B301EBC102CE
:1004900002EB0111401EB0FBF1F0401CC0F30B0059
:1004A00040F4804040F400402168CA694CF6FF7374
:1004B0009A431043C861D4E90710014320680268D9
:1004C00022F0C00211430160D4E903010143206816
:1004D000826848F2FF339A4311438160D4E90501F1
:1004E00008432168CA6822F0FF021043C86001E097
:1004F0000EE016E02068016841F00101016025640A
:10050000202084F83D00256384F83E50002070BD13
:1005100001EB4106431EB3FBF6F35B1CB3E701207E
:10052000C2E701EB4101401EB0FBF1F0401CC0F3FB
:100530000B00B7E7A086010080841E0000093D0083
:1005400040420F0030B585B0002100910191029129
:1005500003911E4D03681E4C122103221D48AB421D
:1005600016D1A36943F00803A361A369039203F0C2
:1005700008030493C023CDE900316946FFF71CFE50
:10058000E06940F40010E061E06900F4001019E057
:10059000114DAB4217D1A36943F00803A361A369CE
:1005A000039203F0080304934FF44063CDE9003154
:1005B0006946FFF701FEE06940F48000E061E06910
:1005C00000F48000049005B030BD000000540040ED
:1005D00000100240000C01400058004002488168B1
:1005E000027811448160704700000020074810B570
:1005F000016841F010010160032000F067F800205D
:1006000000F006F800F024F8002010BD00200240A1
:1006100070B50D4D04464FF47A712878B1FBF0F0B7
:100620000A490968B1FBF0F000F0DEFA48B9102C75
:1006300007D200222146501E00F028F800206C60EE
:1006400070BD012070BD0000000000200C000020E3
:100650000C4808B5816941F001018161816901F0AF
:1006600001010091C16941F08051C161C06900F090
:10067000805000900448416821F0E06141F0007131
:10068000416008BD0010024000000140F0B40E4B74
:100690001B680C46C3F30223C3F10705042D00D9E0
:1006A0000425191D072901D2002300E0DB1E0126C5
:1006B00006FA05F1491E214099409E40761E1640DB
:1006C0003143F0BC00F01DBC0CED00E0064900F029
:1006D000070208684FF6FF03184040EA0220034A69
:1006E00010430860704700000CED00E00000FA05C0
:1006F0002DE9F0470F46050061D0434E306800F009
:100700000700B84209D2306820F007003843306053
:10071000306800F00700B84251D128683B4C81078F
:1007200012D5400703D5606840F4E0606060287827
:10073000000703D5606840F4605060606068A96895
:1007400020F0F000084360602878C00728D068686F
:10075000012810D02168022810D0890700292EDA3C
:10076000616821F0030101436160FFF721FE8046CB
:1007700041F288390DE021688903EFE78901EDE74F
:10078000FFF716FEA0EB0801494502D90320BDE89A
:10079000F0876068696800F00C00B0EB810FEFD162
:1007A000306800F00700B8420BD9306820F007002D
:1007B00038433060306800F00700B84201D00120B3
:1007C000E5E72878400705D56068E96820F4E0602F
:1007D000084360602878000706D56068296920F41E
:1007E000605040EAC100606000F038F86168084A73
:1007F000C1F30311515CC84006490860064800680F
:10080000FFF706FF0020C2E7002002400010024070
:100810005A0F00080C00002004000020044805497D
:1008200000684968044AC1F30221515CC84070471E
:100830000C000020001002406A0F0008044805491F
:1008400000684968044AC1F3C221515CC84070473E
:100850000C000020001002406A0F000812A185B0B1
:100860000FC98DE80F0014A0144A00680490516865
:10087000134801F00C03042B10D0082B0ED1C1F348
:100880008343C9031DF803000AD5516804AAC1F3C4
:100890004041515C0A4A5043B0FBF1F005B070474B
:1008A00008494843FAE7000002030405060708095F
:1008B0000A0B0C0D0E0F1010010200000010024078
:1008C00000127A0000093D002DE9F84F040070D0B5
:1008D0002078C04DC00749D06868C0F38100012866
:1008E00007D06868C0F38100022809D16868C00396
:1008F00006D52868800339D560680028E7D035E040
:100900006068B0F5803F0BD010B1B0F5A02F11D0CA
:10091000286820F480302860286820F4802002E0D5
:10092000286840F480302860606890B1FFF740FD8F
:1009300006460AE0286840F480202860F0E700BFFF
:10094000FFF736FD801B642873D828688003F7D52D
:100950000CE0FFF72DFD064605E000BFFFF728FD80
:10096000801B6428F0D828688003F7D420789A4E3A
:1009700080074FF001094FF0000839D5686810F082
:100980000C0F07D06868C0F38100022809D168689D
:10099000C00306D42868800714D52069012808D12F
:1009A00010E02069B0B1C6F80090FFF701FD0746DE
:1009B00005E00AE1FFF7FCFCC01B0228C4D8286848
:1009C0008007F7D52868616920F0F80040EAC10087
:1009D00028600DE0C6F80080FFF7EAFC074604E057
:1009E000FFF7E6FCC01B022823D828688007F7D44D
:1009F000207800072CD57948A169D9B1C0F80090BA
:100A0000FFF7D6FC074604E0FFF7D2FCC01B022824
:100A10000FD8686A8007F7D571484FF4FA5100681B
:100A2000B0FBF1F0009000BF0098411E0091FAD297
:100A30000EE080E0C0F80080FFF7BAFC074604E053
:100A4000FFF7B6FCC01B022875D8686A8007F7D488
:100A50002078400760D5E8690027C00008D4E8691D
:100A600040F08050E861E869012700F08050009074
:100A70005C480168C90513D40168834641F480715C
:100A80000160FFF795FC824606E000BFFFF790FC8F
:100A9000A0EB0A0064284ED8DBF80000C005F5D5AD
:100AA000E06801280AD008B1052813D0286A20F090
:100AB00001002862286A20F0040002E0286A40F061
:100AC00001002862E06841F2883B98B1FFF770FCB2
:100AD00082460BE0286A40F004002862EEE700BF7F
:100AE000FFF766FCA0EB0A0159455AD8286A80072F
:100AF000F6D50CE0FFF75CFC824605E0FFF758FCFA
:100B0000A0EB0A0159454CD8286A8007F6D41FB1DA
:100B1000E86920F08050E861E06988B36968C1F352
:100B20008101022944D00228C6F8608004D0FFF772
:100B30003FFC044638E034E0FFF73AFC074604E0A7
:100B4000FFF736FCC01B02282BD828688001F7D499
:100B5000206AB0F5803F05D16868A16820F40030B4
:100B600008436860D4E908010843696821F47411F6
:100B700008436860C6F86090FFF71AFC044606E078
:100B800025E000BFFFF714FC001B022809D82868E5
:100B90008001F7D51BE000BFFFF70AFC001B02280D
:100BA00002D90320BDE8F88F28688001F4D40EE054
:100BB0000128F7D06868226A00F48031914204D19C
:100BC000616A00F47010884201D00120EAE7002039
:100BD000E8E7000000100240000042428004424268
:100BE0000C0000200070004010B5401EB0F1807F66
:100BF00001D3012010BD4FF0E02460610F21601788
:100C000000F07FF90020A06107202061002010BDC6
:100C100070B5040004D094F83D00002510B106E042
:100C2000012070BD84F83C50204600F023F82420B9
:100C300084F83D002068C16821F40051C16020465D
:100C400000F002F92068016921F4904101612068F7
:100C5000416921F02A0141612068C16841F40051D5
:100C6000C1602564202084F83D0084F83E00002007
:100C700070BD000030B585B000240094019402944A
:100C8000039400681449884224D11448816941F4CE
:100C900080418161816901F480410491816941F061
:100CA0000401816180690E4D00F0040004904FF44E
:100CB00000700090022001900320039069462846AE
:100CC000FFF77AFA2815CDE9000469462846029410
:100CD000FFF772FA05B030BD003801400010024045
:100CE00000080140FEE700000D4808B5816941F0A9
:100CF00020018161816901F020010091816941F049
:100D000008018161816901F008010091816941F068
:100D100004018161806900F00400009008BD0000BA
:100D2000001002400D4810B50B4901600C494160AC
:100D300000214FF480428160C0E90312416181616A
:100D4000C1610162FFF73AFB002803D0BDE8104003
:100D5000FFF730BA10BD0000005400401000002022
:100D6000A08601000D4810B50B4901600C49416097
:100D700000214FF480428160C0E90312416181612A
:100D8000C1610162FFF71AFB002803D0BDE81040E3
:100D9000FFF710BA10BD00000058004064000020AA
:100DA000A08601000C4810B50A4901604FF4E131FA
:100DB0004160002181600C22C160C0E904128161A0
:100DC000C161FFF725FF002803D0BDE81040FFF701
:100DD000F1B910BD00380140B8000020FEE7FEE781
:100DE00070477047FFF7FABB30B58FB028216846CF
:100DF000FFF7C1F914210AA8FFF7BDF90121080482
:100E0000CDE900100024029402250491CDE9075099
:100E10004FF4E01009906846FFF756FD08B172B62E
:100E2000FEE70F20CDE90A054FF48060CDE90C40C4
:100E300002210AA80E94FFF75BFC002801D072B6CD
:100E4000FEE70FB030BD704770B504460068016919
:100E5000E26821F44051114301612169A06808430F
:100E6000616908432168CA6841F20C639A430243EE
:100E7000CA6020684169A26921F44071114341614F
:100E80001E492068884202D1FFF7D8FC01E0FFF735
:100E9000C5FC00EBC00101EB00126068642180001A
:100EA000B2FBF0F3B3FBF1F36FF018067343B2FB40
:100EB000F0F5B2FBF0F605EB8305322303EB0515E5
:100EC000B5FBF1F5B6FBF1F605F0F00505EB0615FF
:100ED000B2FBF0F6B2FBF0F0B0FBF1F06FF01802ED
:100EE000504306EB800003EB0010B0FBF1F02168EB
:100EF00000F00F002844886070BD000000380140F9
:100F0000FEE70907090E002804DB00F1E02080F865
:100F10000014704700F00F0000F1E02080F8141D6D
:100F2000704702E008C8121F08C1002AFAD17047B2
:100F30007047002001E001C1121F002AFBD1704759
:100F4000FFF754FBFFF750FFFFF7CEFEFFF7EAFE77
:100F5000FFF708FFFFF726FFFEE700000000000094
:100F60000000010203040607080900000000010256
:100F700003040000940F000800000020100000008F
:100F8000220F0008A40F000810000020F004000049
:100F9000320F0008010000001000000000000000F7
:040FA0000024F40035
:0400000508000131BD
:00000001FF
